:100800009701001093810100177100101301817F7F
:1008100017150000130505C497F5FF0F9385857E16
:100820001386818063FCC5008322050023A0550048
:100830001305450093854500E3E8C5FE13858180D7
:10084000938581836378B500232005001305450057
:10085000E36CB5FEEF008040EF0010246F00000055
:10086000130101FE232E8100130401022326A4FE9E
:100870002324B4FE032784FE8327C4FE23A0E700BD
:10088000130000000324C10113010102678000006E
:10089000130101FE232E8100130401022326A4FE6E
:1008A0002324B4FE2322C4FE8327C4FE83A70700AB
:1008B000032784FE23A2E7008327C4FE83A7070043
:1008C000032744FE23A0E700130000000324C10116
:1008D0001301010267800000130101FE232E810035
:1008E000130401022326A4FE2324B4FE8327C4FE9E
:1008F000032784FE23A2E7008327C4FE83A7070003
:10090000032784FE23A4E700130000000324C10191
:100910001301010267800000130101FD23268102FB
:1009200013040103232EA4FC232CB4FC232AC4FCAF
:10093000032784FD8327C4FD23A0E700832744FD0C
:1009400003A747008327C4FD23A2E700832744FDB4
:1009500003A787008327C4FD23A4E700832744FD62
:1009600003C707008327C4FD2386E700832744FDD0
:1009700003C717008327C4FDA386E7008327C4FDB0
:1009800083A70700032744FD0327470023A0E700B0
:100990008327C4FD83A70700032744FD032787009F
:1009A00023A2E7008327C4FD83A70700032744FD94
:1009B0000327470023A4E700832744FD83C70700DC
:1009C000138707008327C4FD83A707001317870039
:1009D00023A6E700A30704FE6F00800A832744FDD7
:1009E00083C70700138707008347F4FEB357F74018
:1009F00093F71700639807048347F4FE032744FD29
:100A0000B307F70083C70702138607008347F4FE86
:100A1000032744FDB307F70083C7C7011397870077
:100A20008327C4FD83A607008347F4FE3367E600EF
:100A30009387270093973700B387F60023A6E70034
:100A40006F0040038347F4FE0327C4FD832607009D
:100A50000346F4FE032744FD93972700B307F700EE
:100A600003A7C7009307260093973700B387F600C4
:100A700023A4E7008347F4FE93871700A307F4FE3F
:100A80000347F4FE93073000E3FAE7F41300000095
:100A90000324C1021301010367800000130101FE5A
:100AA000232E8100130401022326A4FE8327C4FE03
:100AB00083A7070083A7470193D7870093F7F70F12
:100AC000138507000324C1011301010267800000A0
:100AD000130101FE232E8100130401022326A4FE2C
:100AE0008327C4FE83A7070023AA07001300000082
:100AF0000324C1011301010267800000130101FEFC
:100B0000232E8100130401022326A4FE93870500EF
:100B10002322C4FEA305F4FE8327C4FE83C7D700A7
:100B20000347B4FE6374F7048327C4FE83C7C7007A
:100B3000138707008347B4FEB357F74093F71700B6
:100B4000638607028327C4FE03A707008347B4FE1A
:100B50009387270093973700B307F700032744FED6
:100B600023A4E700930700006F0080009307F0FFC5
:100B7000138507000324C1011301010267800000EF
:100B8000130101FE232E8100130401022326A4FE7B
:100B90002324B4FE032784FE8327C4FE23A0E7009A
:100BA0008327C4FE23820700130000000324C10131
:100BB0001301010267800000130101FD2326810259
:100BC00013040103232EA4FC93870500A30DF4FC5A
:100BD0008327C4FD83A707002326F4FE8327C4FED2
:100BE00083A707002324F4FE832784FE93F71700CE
:100BF000638607009307F0FF6F004005832784FE9C
:100C000093F737C02324F4FE8347B4FD939727005E
:100C1000032784FEB367F7002324F4FE8327C4FE72
:100C2000032784FE23A0E700832784FE13E7270021
:100C30008327C4FE23A0E700832784FE13F7D7FF92
:100C40008327C4FE23A0E700930700001385070055
:100C50000324C1021301010367800000130101FF97
:100C60002326810013040101B7170000938707EDC5
:100C700073905730B72700009387878873900730A9
:100C8000130000000324C10013010101678000006C
:100C9000130101FE232E8100130401022326A4FE6A
:100CA0002324B4FE8327C4FE032784FE23A0E70089
:100CB000130000000324C10113010102678000003A
:100CC000130101FD2326810213040103232EA4FC3A
:100CD000232CB4FCF32740F12326F4FE8327C4FE23
:100CE0002324F4FE8327C4FD03A70700832784FE83
:100CF0009397C7003307F700B7072000B307F70043
:100D00002322F4FE832744FE032784FD23A0E7006B
:100D1000130000000324C1021301010367800000D7
:100D2000130101FD2326810213040103232EA4FCD9
:100D3000232CB4FCF32740F12326F4FE8327C4FEC2
:100D40002324F4FE8327C4FD03A70700832784FE22
:100D5000939777003307F700832784FD93D73700F5
:100D60003307F700B7270000B307F7002322F4FE8C
:100D7000832744FE83C70700A301F4FE832784FD75
:100D800093F7770013071000B317F7001397870145
:100D900013578741830734FEB367F70093978701A2
:100DA00093D78741A301F4FE832744FE034734FE13
:100DB0002380E700130000000324C1021301010394
:100DC00067800000130101FD232681021304010343
:100DD000232EA4FC232CB4FC232AC4FC8327C4FDAB
:100DE00003A70700832784FD93972700B307F70025
:100DF0002326F4FE8327C4FE032744FD23A0E70037
:100E0000130000000324C1021301010367800000E6
:100E1000130101FD2326810213040103232EA4FCE8
:100E2000F32740F12326F4FE8327C4FE2324F4FE97
:100E30008327C4FD03A70700832784FE9397C70079
:100E40003307F700B707200093874700B307F70081
:100E50002322F4FE832744FE83A70700138507009F
:100E60000324C1021301010367800000130101FD87
:100E70002326810213040103232EA4FC232CB4FC9B
:100E8000F32740F12326F4FE8327C4FE2324F4FE37
:100E90008327C4FD03A70700832784FE9397C70019
:100EA0003307F700B707200093874700B307F70021
:100EB0002322F4FE832744FE032784FD23A0E700BA
:100EC000130000000324C102130101036780000026
:100ED000130101F8232211002324210023263100CD
:100EE00023284100232A5100232C6100232E710066
:100EF00023208102232291022324A1022326B1026E
:100F00002328C102232AD102232CE102232EF1023D
:100F10002320010523221105232421052326310541
:100F200023284105232A5105232C6105232E710511
:100F300023208107232291072324A1072326B10719
:100F40002328C107232AD107232CE107232EF107E9
:100F500073252034F32510341356F501630606007B
:100F6000EF0080096F008000EF0000118320410036
:100F7000032181008321C100032201018322410159
:100F8000032381018323C10103240102832441023D
:100F9000032581028325C102032601038326410321
:100FA000032781038327C103032801048328410405
:100FB000032981048329C104032A0105832A4105E9
:100FC000032B8105832BC105032C0106832C4106CD
:100FD000032D8106832DC106032E0107832E4107B1
:100FE000032F8107832FC1071301010873002030ED
:100FF0006F0000006F000000130101FE232E11009E
:10100000232C8100130401022326A4FE2324B4FE12
:101010000327C4FEB7070080938777006308F702B1
:101020000327C4FEB70700809387B7006306F70263
:101030000327C4FEB7070080938737006312F702C7
:1010400097000000E70000006F00C001970000005B
:10105000E70000006F000001EF0000166F00800045
:1010600013000000130000008320C101032481014C
:101070001301010267800000130101FE232E81008D
:10108000130401022326A4FE2324B4FE6F000000F3
:10109000130101FD2326810213040103732600B00E
:1010A0002326C4FE0326C4FE2320C4FE232204FEFE
:1010B000732600B8232EC4FC0326C4FD9306060045
:1010C000130700001398060093070000032704FE8F
:1010D0003367F7002320E4FE032744FEB3670701CC
:1010E0002322F4FE832704FE032844FE1385070011
:1010F000930508000324C102130101036780000067
:10110000130101FC232E1102232C8102232A210327
:1011100023283103130401042326A4FC0327C4FC61
:1011200093072003B307F7022326F4FEEFF05FF6E0
:101130002320A4FE2322B4FE8327C4FE13890700C4
:1011400093090000832604FE032744FEB38726018B
:10115000138607003336D6003308370133070601FC
:1011600013080700232CF4FC232E04FD13000000B9
:10117000EFF01FF293070500138805000327C4FD55
:1011800093060800E3E6E6FE0327C4FD9306080085
:101190006316D700032784FDE3ECE7FC130000008F
:1011A0008320C1030324810303294103832901030D
:1011B0001301010467800000130101FE232E1100BA
:1011C000232C81001304010213858181EFF05FC499
:1011D0002326A4FE0327C4FE930720006304F70020
:1011E0006F00C000EF008002130000008325C4FEE2
:1011F00013858181EFF09FC7130000008320C10198
:10120000032481011301010267800000130101FE24
:10121000232E1100232C8100130401021385418227
:10122000EFF0DF8793070500A307F4FE8347F4FE82
:1012300093F717006386070013071000238EE180E1
:1012400013854182EFF0DF88130000008320C10185
:10125000032481011301010267800000130101FED4
:10126000232E1100232C8100130401029307050093
:10127000A307F4FE8347F4FE9385070013850181DD
:10128000EFF09F93130000008320C101032481012C
:101290001301010267800000130101FC232E1102DB
:1012A000232C810213040104B717000093870780E1
:1012B00073904730B70500F013858181EFF05F9D93
:1012C0009305000013858181EFF09F9F13061000A6
:1012D0009305200013858181EFF0DFAE9305200098
:1012E00013858181EFF0DFA3B7050040B707001039
:1012F00013858700EFF0CFD693050000B7070010E5
:1013000013858700EFF04FDDB7350040138501816D
:10131000EFF01F87371700001307C72523AAE182C4
:10132000930710032328F4FC9307703E232AF4FC50
:1013300093071000A306F4FC930710002306F4FCA7
:10134000232C04FC232E04FC232004FE232204FE71
:10135000230404FEA30404FE230504FEA30504FEE7
:10136000230604FEA30604FE230704FEA30704FECF
:101370009307C4FC13860700B725004013854182FC
:10138000EFF08FD983A741821307703E23A4E700B3
:101390009387418283C7C7001397870083A7418241
:1013A0001367170023A6E70083A7018213860700AF
:1013B0009305000013854182EFF04FF483C7D1817C
:1013C0001386070093051000B707001013858700E8
:1013D000EFF00FCCB707001083C707006386070242
:1013E00003A701829307803E6318F700B707001038
:1013F000238007006F00800383A7018213874706BD
:1014000023A0E1826F00800283A70182639A070014
:10141000B7070010130710002380E7006F000001DA
:1014200083A701821387C7F923A0E182B7C7000011
:1014300013850735EFF0DFCC83C7D18193B7170051
:1014400093F7F70F13870700A38EE1806FF0DFF5A6
:08145000010000000000000093
:0400000300000800F1
:00000001FF
