:100800009701001093818142177100101301817FBD
:10081000171500001305C51D97F5FF0F9385857EFD
:100820001386818063FCC5008322050023A0550048
:100830001305450093854500E3E8C5FE13858180D7
:10084000938581876378B500232005001305450053
:10085000E36CB5FEEF000054EF0090376F0000002E
:040860006F00000025
:1008640097F7FFFF9387C779638807001715000080
:10087400130545D66F0010516780000097010010E2
:100884009381813A13858180138681873306A6403C
:1008940093050000EF00506317150000130585D37E
:1008A400EF00504EEF00D05803250100930541009E
:1008B40013060000EF0090316F00104E67800000B7
:1008C4001385818093878180638AA70017F3FFFFD4
:1008D40013030373630403006700030067800000CD
:1008E4001385818093858180B385A54093D5254068
:1008F40093D7F501B385B70093D51540638A0500F6
:1009040017F3FFFF1303C36F6304030067000300BF
:100914006780000083C7818063900704130101FF8F
:1009240023261100EFF0DFF997F7FFFF9387476D58
:10093400638A0700171500001305450A9700000095
:10094400E70000008320C100930710002384F18096
:1009540013010101678000006780000097F7FFFF23
:100964009387076A63860702130101FF93858182D7
:1009740017150000130585062326110097000000B3
:10098400E70000008320C100130101016FF05FF54F
:100994006FF01FF5130101FE232E810013040102E1
:1009A4002326A4FE2324B4FE032784FE8327C4FE47
:1009B40023A0E700130000000324C1011301010276
:1009C40067800000130101FE232E8100130401023D
:1009D4002326A4FE2324B4FE2322C4FE8327C4FEBC
:1009E40083A70700032784FE23A2E7008327C4FE0E
:1009F40083A70700032744FE23A0E7001300000099
:100A04000324C1011301010267800000130101FEE8
:100A1400232E8100130401022326A4FE2324B4FE02
:100A24008327C4FE032784FE23A2E7008327C4FE92
:100A340083A70700032784FE23A4E7001300000014
:100A44000324C1011301010267800000130101FDA9
:100A54002326810213040103232EA4FC232CB4FCBB
:100A6400232AC4FC032784FD8327C4FD23A0E700B5
:100A7400832744FD03A747008327C4FD23A2E7007F
:100A8400832744FD03A787008327C4FD23A4E7002D
:100A9400832744FD03C707008327C4FD2386E7009B
:100AA400832744FD03C717008327C4FDA386E700FB
:100AB4008327C4FD83A70700032744FD03274700BA
:100AC40023A0E7008327C4FD83A70700032744FD71
:100AD4000327870023A2E7008327C4FD83A7070019
:100AE400032744FD0327470023A4E700832744FD8D
:100AF40083C70700138707008327C4FD83A7070064
:100B04001317870023A6E700A30704FE6F00800ADB
:100B1400832744FD83C70700138707008347F4FE38
:100B2400B357F74093F71700639807048347F4FE1D
:100B3400032744FDB307F70083C7070213860700A2
:100B44008347F4FE032744FDB307F70083C7C701B7
:100B5400139787008327C4FD83A607008347F4FE09
:100B64003367E6009387270093973700B387F6002F
:100B740023A6E7006F0040038347F4FE0327C4FD68
:100B8400832607000346F4FE032744FD93972700BA
:100B9400B307F70003A7C70093072600939737000E
:100BA400B387F60023A4E7008347F4FE9387170076
:100BB400A307F4FE0347F4FE93073000E3FAE7F4D7
:100BC400130000000324C102130101036780000025
:100BD400130101FE232E8100130401022326A4FE27
:100BE4008327C4FE83A7070083A7470193D7870001
:100BF40093F7F70F138507000324C10113010102C2
:100C040067800000130101FE232E810013040102FA
:100C14002326A4FE8327C4FE83A7070023AA070074
:100C2400130000000324C1011301010267800000C6
:100C3400130101FE232E8100130401022326A4FEC6
:100C4400938705002322C4FEA305F4FE8327C4FE74
:100C540083C7D7000347B4FE6374F7048327C4FE35
:100C640083C7C700138707008347B4FEB357F74011
:100C740093F71700638607028327C4FE03A70700C0
:100C84008347B4FE9387270093973700B307F70091
:100C9400032744FE23A4E700930700006F008000AD
:100CA4009307F0FF138507000324C1011301010218
:100CB40067800000130101FE232E8100130401024A
:100CC4002326A4FE2324B4FE032784FE8327C4FE24
:100CD40023A0E7008327C4FE23820700130000003B
:100CE4000324C1011301010267800000130101FD07
:100CF4002326810213040103232EA4FC93870500F9
:100D0400A30DF4FC8327C4FD83A707002326F4FE68
:100D14008327C4FE83A707002324F4FE832784FECD
:100D240093F71700638607009307F0FF6F004005F1
:100D3400832784FE93F737C02324F4FE8347B4FD4E
:100D440093972700032784FEB367F7002324F4FE58
:100D54008327C4FE032784FE23A0E700832784FEA1
:100D640013E727008327C4FE23A0E700832784FE1C
:100D740013F7D7FF8327C4FE23A0E70093070000DF
:100D8400138507000324C1021301010367800000D7
:100D9400130101FF2326810013040101B71700008A
:100DA4009387870073905730B7270000938787880D
:100DB40073900730130000000324C10013010101E4
:100DC40067800000130101FE232E81001304010239
:100DD4002326A4FE2324B4FE8327C4FE032784FE13
:100DE40023A0E700130000000324C1011301010242
:100DF40067800000130101FD23268102130401030F
:100E0400232EA4FC232CB4FCF32740F12326F4FE68
:100E14008327C4FE2324F4FE8327C4FD03A707000D
:100E2400832784FE9397C7003307F700B707200092
:100E3400B307F7002322F4FE832744FE032784FD2F
:100E440023A0E700130000000324C10213010103DF
:100E540067800000130101FD2326810213040103AE
:100E6400232EA4FC232CB4FCF32740F12326F4FE08
:100E74008327C4FE2324F4FE8327C4FD03A70700AD
:100E8400832784FE939777003307F700832784FD35
:100E940093D737003307F700B7270000B307F700ED
:100EA4002322F4FE832744FE83C70700A301F4FE34
:100EB400832784FD93F7770013071000B317F70017
:100EC4001397870113578741830734FEB367F700ED
:100ED4009397870193D78741A301F4FE832744FEA8
:100EE400034734FE2380E700130000000324C102FB
:100EF4001301010367800000130101FD2326810211
:100F040013040103232EA4FC232CB4FC232AC4FCC5
:100F14008327C4FD03A70700832784FD9397270035
:100F2400B307F7002326F4FE8327C4FE032744FDFA
:100F340023A0E700130000000324C10213010103EE
:100F440067800000130101FD2326810213040103BD
:100F5400232EA4FCF32740F12326F4FE8327C4FEAA
:100F64002324F4FE8327C4FD03A70700832784FEFC
:100F74009397C7003307F700B7072000938747000C
:100F8400B307F7002322F4FE832744FE83A7070058
:100F9400138507000324C1021301010367800000C5
:100FA400130101FD2326810213040103232EA4FC53
:100FB400232CB4FCF32740F12326F4FE8327C4FE3C
:100FC4002324F4FE8327C4FD03A70700832784FE9C
:100FD4009397C7003307F700B707200093874700AC
:100FE400B307F7002322F4FE832744FE032784FD7E
:100FF40023A0E700130000000324C102130101032E
:1010040067800000130101F823221100232421002A
:101014002326310023284100232A5100232C610078
:10102400232E710023208102232291022324A10272
:101034002326B1022328C102232AD102232CE10250
:10104400232EF10223200105232211052324210547
:101054002326310523284105232A5105232C610524
:10106400232E710523208107232291072324A1071E
:101074002326B1072328C107232AD107232CE107FC
:10108400232EF10773252034F32510341356F5016C
:1010940063060600EF0080096F008000EF00001176
:1010A40083204100032181008321C1000322010127
:1010B40083224101032381018323C101032401020B
:1010C40083244102032581028325C10203260103EF
:1010D40083264103032781038327C10303280104D3
:1010E40083284104032981048329C104032A0105B7
:1010F400832A4105032B8105832BC105032C01069B
:10110400832C4106032D8106832DC106032E01077E
:10111400832E4107032F8107832FC1071301010881
:10112400730020306F0000006F000000130101FE07
:10113400232E1100232C8100130401022326A4FE74
:101144002324B4FE0327C4FEB707008093877700E7
:101154006308F7020327C4FEB70700809387B7002C
:101164006306F7020327C4FEB7070080938737009E
:101174006312F70297000000E70000006F00C0014F
:1011840097000000E70000006F000001EF00001668
:101194006F00800013000000130000008320C101D1
:1011A400032481011301010267800000130101FE81
:1011B400232E8100130401022326A4FE2324B4FE5B
:1011C4006F000000130101FD2326810213040103B3
:1011D400732600B02326C4FE0326C4FE2320C4FEC7
:1011E400232204FE732600B8232EC4FC0326C4FD68
:1011F40093060600130700001398060093070000E7
:10120400032704FE3367F7002320E4FE032744FE8C
:10121400B36707012322F4FE832704FE032844FE58
:1012240013850700930508000324C1021301010379
:1012340067800000130101FC232E1102232C81027C
:10124400232A210323283103130401042326A4FCA5
:101254000327C4FC93072003B307F7022326F4FEF5
:10126400EFF05FF62320A4FE2322B4FE8327C4FEFE
:101274001389070093090000832604FE032744FE14
:10128400B3872601138607003336D60033083701A7
:101294003307060113080700232CF4FC232E04FD56
:1012A40013000000EFF01FF29307050013880500F8
:1012B4000327C4FD93060800E3E6E6FE0327C4FD06
:1012C400930608006316D700032784FDE3ECE7FCCC
:1012D400130000008320C103032481030329410375
:1012E400832901031301010467800000130101FE37
:1012F400232E1100232C8100130401021385C181C4
:10130400EFF05FC42326A4FE0327C4FE9307200046
:101314006304F7006F00C000EF00800213000000B8
:101324008325C4FE1385C181EFF09FC7130000001D
:101334008320C1010324810113010102678000009D
:10134400130101FE232E1100232C8100130401023A
:1013540013850184EFF0DF8793070500A307F4FEEC
:101364008347F4FE93F71700638607001307100002
:101374002380E18213850184EFF0DF8813000000ED
:101384008320C1010324810113010102678000004D
:10139400130101FE232E1100232C810013040102EA
:1013A40093070500A307F4FE8347F4FE9385070023
:1013B40013854181EFF09F93130000008320C10146
:1013C400032481011301010267800000130101FC61
:1013D400232E1102232C810213040104B7170000E9
:1013E4009387078073904730B70500F01385C18158
:1013F400EFF05F9D930500001385C181EFF09F9F7F
:1014040013061000930520001385C181EFF0DFAEB1
:10141400930520001385C181EFF0DFA3B7050040D9
:10142400B707001013854743EFF0CFD693050000AC
:10143400B707001013854743EFF04FDDB735004081
:1014440013854181EFF01F873717000013074739D1
:1014540023A8E184930710032328F4FC9307703E28
:10146400232AF4FC93071000A306F4FC930710004E
:101474002306F4FC232C04FC232E04FC232004FE6A
:10148400232204FE230404FEA30404FE230504FE15
:10149400A30504FE230604FEA30604FE230704FE9C
:1014A400A30704FE9307C4FC13860700B725004076
:1014B40013850184EFF08FD983A701841307703E4D
:1014C40023A4E7009387018483C7C7001397870089
:1014D40083A701841367170023A6E70083A741822B
:1014E400138607009305000013850184EFF04FF481
:1014F40083C711821386070093051000B7070010F5
:1015040013854743EFF00FCCB707001083C787421A
:101514006386070203A741829307803E6318F7009E
:10152400B7070010238407426F00800383A741821A
:101534001387470623A2E1826F00800283A74182BA
:10154400639A0700B7070010130710002384E742CB
:101554006F00000183A741821387C7F923A2E182A8
:10156400B7C7000013850735EFF0DFCC83C71182BE
:1015740093B7170093F7F70F13870700A380E1824F
:101584006FF0DFF5930505009306000013060000D5
:10159400130500006F000021130101FF93050000F3
:1015A400232481002326110013040500EF00802E5C
:1015B400970700009387874203A507008327C50385
:1015C40063840700E780070013050400EFF00FA908
:1015D400130101FF23248100970700009387C7406C
:1015E40017040000130484403304F440232611003C
:1015F4002322910013542440630204029314240010
:101604009384C4FFB384F40083A704001304F4FF99
:101614009384C4FFE7800700E31804FE03248100D9
:101624008320C10083244100130101016FF00FA93D
:10163400130101FF2324810023202101170400004A
:101644001304043A1709000013098939330989403E
:10165400232611002322910013592940630E090007
:1016640093040000832704009384140013044400AB
:10167400E7800700E31899FE1704000013044436BA
:1016840017090000130949363309894013592940C1
:10169400EFF0CFA2630E0900930400008327040037
:1016A4009384140013044400E7800700E31899FEB0
:1016B4008320C10003248100832441000329010005
:1016C40013010101678000001303F00013070500F4
:1016D400637EC3029377F7006390070A6392050859
:1016E400937606FF1376F600B386E6002320B70050
:1016F4002322B7002324B7002326B70013070701CA
:10170400E366D7FE6314060067800000B306C34097
:101714009396260097020000B38656006780C600A1
:101724002307B700A306B7002306B700A305B70035
:101734002305B700A304B7002304B700A303B7002D
:101744002303B700A302B7002302B700A301B70025
:101754002301B700A300B7002300B700678000008F
:1017640093F5F50F93968500B3E5D500939605019F
:10177400B3E5D5006FF0DFF69396270097020000DB
:10178400B386560093820000E78006FA9380020035
:10179400938707FF3307F7403306F600E378C3F671
:1017A4006FF0DFF3130101FE232C810017F4FF0F08
:1017B4001304C4C7232A91009304050003250400DD
:1017C400232821012326310123244101232E110042
:1017D40013890500130A060093890600EF00401FD1
:1017E400970700009387871F03A7070083278714A1
:1017F4006386070803A747001308F00103250400C4
:101804006344E80813182700639E040213071700B3
:1018140023A2E700B387070123A42701EF00801B5D
:10182400130500008320C1010324810183244101A5
:10183400032901018329C100032A81001301010244
:1018440067800000B385070123A4450983A6871890
:10185400130610003316E600B3E6C60023A4D71817
:1018640023A4351193062000E392D4FA83A6C71863
:1018740033E6C60023A6C7186FF05FF99307C714B1
:101884002324F7146FF01FF7EF00C0141305F0FFC3
:101894006FF05FF9130101FD2328610117FBFF0FAE
:1018A400130BCBB8232A5101930A050003250B001F
:1018B400232E3101232C410123267101232291017E
:1018C40023261102232481022322910223202103AF
:1018D40023248101938B0500EF00800F97070000FC
:1018E4009387C70F83AC0700130A10009309F0FF16
:1018F40003A98C1463080902832449001384F4FFA8
:101904006342040293942400B304990063880B0493
:1019140083A74410638477051304F4FF9384C4FFFE
:10192400E31634FF0324810203250B008320C10244
:1019340083244102032901028329C101032A81016D
:10194400832A4101032B0101832BC100032C810055
:10195400832C4100130101036F00C0078327490052
:1019640083A644009387F7FF638A870423A20400B5
:10197400E38406FA8327891833178A00032C490065
:10198400B377F700639E0700E780060083274900CA
:10199400E39087F783A78C14E38027F96FF05FF552
:1019A4008327C91883A544083377F700631C07000D
:1019B40013850A00E78006006FF05FFD232289008B
:1019C4006FF01FFB13850500E78006006FF01FFC16
:0819D40067800000678000003D
:0419DC0000000010F7
:0819E00064080000600900002A
:0419E80018090000DA
:1019EC0000000000EC02001054030010BC030010B7
:1019FC0000000000000000000000000000000000DB
:101A0C0000000000000000000000000000000000CA
:101A1C0000000000000000000000000000000000BA
:101A2C0000000000000000000000000000000000AA
:101A3C00000000000000000000000000000000009A
:101A4C00000000000000000000000000000000008A
:101A5C00000000000000000000000000000000007A
:101A6C00000000000000000000000000000000006A
:101A7C00000000000000000000000000000000005A
:101A8C000000000000000000010000000000000049
:101A9C000E33CDAB34126DE6ECDE05000B0000000E
:101AAC00000000000000000000000000000000002A
:101ABC00000000000000000000000000000000001A
:101ACC00000000000000000000000000000000000A
:101ADC0000000000000000000000000000000000FA
:101E0C000000000000000000010000007C04001035
:040000030000088071
:00000001FF
