:10080000970100109381810B177100101301817FF4
:1008100017150000130545FF97F5FF0F9385857E9B
:100820001386818063FCC5008322050023A0550048
:100830001305450093854500E3E8C5FE13858180D7
:10084000938581926378B500232005001305450048
:10085000E36CB5FEEF000032EF0050636F00000064
:10086000130101FE232E8100130401022326A4FE9E
:100870002324B4FE032784FE8327C4FE23A0E700BD
:10088000130000000324C10113010102678000006E
:10089000130101FE232E8100130401022326A4FE6E
:1008A0002324B4FE8327C4FE032784FE23A2E7008B
:1008B0008327C4FE83A70700032784FE23A4E70041
:1008C000130000000324C10113010102678000002E
:1008D000130101FE232E8100130401022326A4FE2E
:1008E0002324B4FE032784FE8327C4FE23A0E7004D
:1008F0008327C4FE23820700130000000324C101E4
:100900001301010267800000130101FD232681020B
:1009100013040103232EA4FC93870500A30DF4FC0C
:100920008327C4FD83A707002326F4FE8327C4FE84
:1009300083A707002324F4FE832784FE93F7170080
:10094000638607009307F0FF6F004005832784FE4E
:1009500093F737C02324F4FE8347B4FD9397270011
:10096000032784FEB367F7002324F4FE8327C4FE25
:10097000032784FE23A0E700832784FE13E72700D4
:100980008327C4FE23A0E700832784FE13F7D7FF45
:100990008327C4FE23A0E700930700001385070008
:1009A0000324C1021301010367800000130101FD4C
:1009B0002326810213040103232EA4FC232CB4FC60
:1009C0008327C4FD83A707002326F4FE8327C4FEE4
:1009D00083A707002324F4FE832784FE93F70740B0
:1009E000638607009307F0FF6F008005032784FEEE
:1009F000B7170000938707803367F7008327C4FE8B
:100A000023A0E700032784FEB7F7FFFF9387F77F54
:100A10003377F7008327C4FE23A0E7008327C4FEB3
:100A200083A707002324F4FE832784FE93D7C700FF
:100A300013F7F70F832784FD2380E7009307000057
:100A4000138507000324C10213010103678000001E
:100A5000130101FD2326810213040103232EA4FCAC
:100A600093870500232AC4FCA30DF4FC8327C4FD4F
:100A700083A70700938747002326F4FE8347B4FD2E
:100A80009397170093E71700138707008327C4FE87
:100A900023A0E7008327C4FD0347B4FD2382E700BA
:100AA0008327C4FD83A70700938787002326F4FECE
:100AB000832744FD83D707009387F7FF1387070039
:100AC000832744FD83D727009387E7FF9397070188
:100AD0003367F7008327C4FE23A0E7008327C4FD04
:100AE00083A707009387C7002326F4FE832744FDCE
:100AF00083D747009387F7FF13870700832744FDB9
:100B000083D767009387E7FF939707013367F70061
:100B10008327C4FE23A0E700130000000324C102C2
:100B20001301010367800000130101FD23268102E8
:100B300013040103232EA4FC8327C4FD83A707000D
:100B4000938747002326F4FE8327C4FD83C747000D
:100B50009397170093E71700138707008327C4FEB6
:100B600023A0E700130000000324C10213010103C6
:100B700067800000130101FF232681001304010197
:100B8000B7170000938787DE73905730B7270000B0
:100B90009387878873900730130000000324C100F7
:100BA0001301010167800000130101FE232E810063
:100BB000130401022326A4FE2324B4FE8327C4FECB
:100BC000032784FE23A0E700130000000324C101D3
:100BD0001301010267800000130101FD2326810239
:100BE00013040103232EA4FC232CB4FCF32740F1AF
:100BF0002326F4FE8327C4FE2324F4FE8327C4FDAA
:100C000003A70700832784FE9397C7003307F700E5
:100C1000B7072000B307F7002322F4FE832744FE22
:100C2000032784FD23A0E700130000000324C10272
:100C30001301010367800000130101FD23268102D7
:100C400013040103232EA4FC232CB4FCF32740F14E
:100C50002326F4FE8327C4FE2324F4FE8327C4FD49
:100C600003A70700832784FE939777003307F700D5
:100C7000832784FD93D737003307F700B727000099
:100C8000B307F7002322F4FE832744FE83C707003F
:100C9000A301F4FE832784FD93F777001307100068
:100CA000B317F7001397870113578741830734FE63
:100CB000B367F7009397870193D78741A301F4FEA9
:100CC000832744FE034734FE2380E700130000001F
:100CD0000324C1021301010367800000130101FD19
:100CE0002326810213040103232EA4FC232CB4FC2D
:100CF000232AC4FC8327C4FD03A70700832784FDA0
:100D000093972700B307F7002326F4FE8327C4FE3A
:100D1000032744FD23A0E700130000000324C102C1
:100D20001301010367800000130101FD23268102E6
:100D300013040103232EA4FCF32740F12326F4FE21
:100D40008327C4FE2324F4FE8327C4FD03A70700E2
:100D5000832784FE9397C7003307F700B707200067
:100D600093874700B307F7002322F4FE832744FE4E
:100D700083A70700138507000324C10213010103A1
:100D800067800000130101FD232681021304010383
:100D9000232EA4FC232CB4FCF32740F12326F4FEDD
:100DA0008327C4FE2324F4FE8327C4FD03A7070082
:100DB000832784FE9397C7003307F700B707200007
:100DC00093874700B307F7002322F4FE832744FEEE
:100DD000032784FD23A0E700130000000324C102C1
:100DE0001301010367800000130101F823221100A1
:100DF000232421002326310023284100232A5100E7
:100E0000232C6100232E71002320810223229102D2
:100E10002324A1022326B1022328C102232AD102BE
:100E2000232CE102232EF1022320010523221105A8
:100E3000232421052326310523284105232A510592
:100E4000232C6105232E710523208107232291077E
:100E50002324A1072326B1072328C107232AD1076A
:100E6000232CE107232EF10773252034F3251034BA
:100E70001356F50163060600EF0080096F0080003D
:100E8000EF00001183204100032181008321C10074
:100E90000322010183224101032381018323C10134
:100EA0000324010283244102032581028325C10218
:100EB0000326010383264103032781038327C103FC
:100EC0000328010483284104032981048329C104E0
:100ED000032A0105832A4105032B8105832BC105C4
:100EE000032C0106832C4106032D8106832DC106A8
:100EF000032E0107832E4107032F8107832FC1078C
:100F000013010108730020306F0000006F00000023
:100F1000130101FE232E1100232C81001304010272
:100F20002326A4FE2324B4FE0327C4FEB7070080B3
:100F3000938777006308F7020327C4FEB707008092
:100F40009387B7006306F7020327C4FEB707008044
:100F5000938737006312F70297000000E700000054
:100F60006F00C00197000000E70000006F00000163
:100F7000EF00405F6F0080001300000013000000CE
:100F80008320C10103248101130101026780000055
:100F9000130101FE232E8100130401022326A4FE67
:100FA0002324B4FE6F000000130101FE232E110064
:100FB000232C81001304010293070500A307F4FE0C
:100FC000B707001083A7070C63820702B70700105A
:100FD00083A7070C93861700370700102320D70C30
:100FE0000347F4FE2380E7006F00C00183A741920E
:100FF000638A070003A741928347F4FE1385070025
:10100000E70007008320C1010324810113010102CD
:1010100067800000130101FE232E1100232C8100A4
:10102000130401022326A4FE6F00C0018327C4FE1F
:10103000138717002326E4FE838707001385070024
:10104000EFF09FF68327C4FE83870700E39007FE37
:10105000130000008320C101032481011301010258
:1010600067800000130101FB23261104232481045F
:1010700013040105232EA4FA232CB4FA8327C4FBFE
:1010800013871700232EE4FA83C70700A30BF4FC91
:10109000830774FD63880744030774FD93075002B8
:1010A000630AF700830774FD13850700EFF0DFEF95
:1010B0006F000043232E04FC8327C4FB1387170013
:1010C000232EE4FA83C70700A30BF4FC030774FD87
:1010D000930700036312F70293071000232EF4FC1A
:1010E0008327C4FB13871700232EE4FA83C7070066
:1010F000A30BF4FC6F00C002030774FD9307D0023A
:101100006310F70293072000232EF4FC8327C4FB0F
:1011100013871700232EE4FA83C70700A30BF4FC00
:10112000232004FE6F000004032704FE930707003A
:1011300093972700B387E70093971700138707005B
:10114000830774FDB307F700938707FD2320F4FEA0
:101150008327C4FB13871700232EE4FA83C70700F5
:10116000A30BF4FC030774FD9307F00263D8E700B8
:10117000030774FD93079003E3D8E7FA030774FDB0
:101180009307C0066308F700030774FD9307C004C4
:101190006312F7028327C4FD93E74700232EF4FC74
:1011A0008327C4FB13871700232EE4FA83C70700A5
:1011B000A30BF4FC830774FD638A0732834774FD35
:1011C000230BF4FC030764FD9307000663DAE700D2
:1011D000834764FD938707FE93F7F70F230BF4FC17
:1011E000830764FD9387E7FB130760016362F710D1
:1011F00013972700B707001093870700B307F7007E
:1012000083A7070067800700832784FB13874700B5
:10121000232CE4FA83A707002328F4FC232204FEEE
:101220006F000001832744FE938717002322F4FEFA
:10123000032704FD832744FEB307F70083870700D5
:10124000E39207FE6F00C00013050002EFF0DFD548
:101250008327C4FD93F72700639C0700832744FE80
:10126000138717002322E4FE032704FEE3EEE7FCC6
:10127000032504FDEFF01FDA6F00C0001305000224
:10128000EFF09FD2832744FE138717002322E4FE4A
:10129000032704FEE3E4E7FE6F008024832784FB3A
:1012A00013874700232CE4FA83A70700939787014D
:1012B00093D7874113850700EFF01FCF6F004022BF
:1012C000930720002326F4FE6F008003930780001D
:1012D0002326F4FE6F00C0029307A0002326F4FE2D
:1012E0006F000002930700012326F4FE6F00400107
:1012F000830774FD13850700EFF01FCB6F00401EBE
:101300008327C4FD93F74700638C0700832784FB82
:1013100013874700232CE4FA83A707006F004003DC
:10132000030764FD93074004631CF700832784FBD5
:1013300013874700232CE4FA83A707006F004001BE
:10134000832784FB13874700232CE4FA83A7070035
:10135000232CF4FC030764FD930740046312F70297
:10136000832784FD63DE0700832784FDB307F040F5
:10137000232CF4FC8327C4FD93E78700232EF4FC81
:10138000232404FE032784FD8327C4FEB377F702DA
:10139000230BF4FC032784FD8327C4FEB357F70215
:1013A000232CF4FC030764FD9307900063D6E70247
:1013B000030774FD930780076316F7009307700215
:1013C0006F00800093077000034764FDB387E70058
:1013D00093F7F70F230BF4FC834764FD9387070310
:1013E00093F6F70F832784FE138717002324E4FE68
:1013F0001397860113578741930604FFB387F600BE
:101400002388E7FC832784FD63880700032784FE85
:101410009307F000E3F8E7F68327C4FD93F787000E
:1014200063800702832784FE138717002324E4FECA
:10143000130704FFB307F7001307D0022388E7FC64
:10144000832784FE2322F4FE8327C4FD93F717002D
:1014500063860700930700036F0080009307000274
:10146000230BF4FC6F000001830764FD1385070064
:10147000EFF09FB38327C4FD93F72700639C070019
:10148000832744FE138717002322E4FE032704FE6C
:10149000E3ECE7FC832784FE9387F7FF2324F4FE25
:1014A000832784FE130704FFB307F700838707FD34
:1014B00013850700EFF05FAF832784FEE39C07FCF2
:1014C0006F00C00013050002EFF01FAE832744FE3B
:1014D000138717002322E4FE032704FEE3E4E7FE5C
:1014E0006FF0DFB9130000006F00800013000000F0
:1014F000130000008320C1040324810413010105AB
:1015000067800000130101FB2326110223248102BE
:1015100013040103232EA4FC2322B4002324C400BB
:101520002326D4002328E400232AF400232C0401DA
:10153000232E140193070402938747FE2326F4FE0B
:101540008327C4FE938507000325C4FDEFF09FB1F8
:10155000130000008320C10203248102130101054E
:1015600067800000130101FE232E1100232C81004F
:10157000130401021385C181EFF00FFB2326A4FEA3
:101580000327C4FE93072000630CF7000327C4FE63
:1015900093073000631AF700EF0040036F0000016B
:1015A000130000006F008000130000008325C4FEBC
:1015B0001385C181EFF00FFD130000008320C101EE
:1015C000032481011301010267800000130101FE61
:1015D000232E1100232C8100130401026F0000044C
:1015E00003D701829307F00F63E0E70283D70182FC
:1015F000938607000347F4FEB70700109387C70DD3
:10160000B387F6002380E70083D701829387170012
:1016100013970701135707012390E1829307F4FE04
:101620009385070013854181EFF04FB893070500BC
:10163000E38807FA13854181EFF00FCF1300000014
:101640008320C1010324810113010102678000008E
:10165000130101FE232E1100232C8100130401022B
:1016600093070500A307F4FE8347F4FE9385070064
:1016700013854181EFF04FA9130000008320C101C1
:10168000032481011301010267800000130101FEA0
:10169000232E1100232C810013040102B717000030
:1016A0009387078073904730B70500F01385C18199
:1016B000EFF08FCF930500001385C181EFF0CFD1FC
:1016C00013061000930530001385C181EFF00FE180
:1016D000930530001385C181EFF00FD6B7050040A8
:1016E000B70700101385470CEFF08F97930500F0B4
:1016F000B70700101385470CEFF08F99B7350040FE
:1017000013854181EFF0CF9CB707001003A7870B2B
:101710002322E4FE9387870B83A747002324F4FE4C
:10172000930744FE138607009305800013854181CB
:10173000EFF00FB2371700001307076523A2E192FD
:10174000B70700101385C705EFF0DFDBB707001000
:1017500013850708EFF01FDB1300000083D7018219
:10176000E38E07FE83D7018293850700B707001039
:101770001385C708EFF01FD9231704FE6F0000037D
:101780000357E4FEB70700109387C70DB307F700B0
:1017900083C707009385070013854181EFF0CF963B
:1017A0008357E4FE938717002317F4FE83D7018243
:1017B0000357E4FEE366F7FC9305000213854181BD
:1017C000EFF08F9403D70182930710006312F702A2
:1017D000B707001003C7C70D93072003631AF7006C
:1017E000B70700101385470AEFF0DFD16F00000143
:1017F000B70700101385C70AEFF0DFD023900182EE
:041800006FF0DFF4B2
:10180400C01200009C120000D8120000F012000068
:10181400F0120000F0120000F0120000F0120000BC
:10182400F0120000F0120000F0120000F0120000AC
:10183400F0120000CC120000F0120000F0120000C0
:10184400F012000008120000F0120000D81200008C
:10185400F0120000F0120000E412000068656C6CE5
:101864006F20776F726C6420310D0A68656C6C6F41
:1018740020776F726C6420320D0A0D0A000000009C
:1018840031202B2031203D203F0D0A0072785F6EFD
:10189400203D20256420636F6E74656E74203D20A6
:1018A40000000000676F6F640D0A00006261640D40
:1018B4000A000000000000000A0060EA0A0060EA72
:0400000300000800F1
:00000001FF
