:10080000970100109381014E177100101301817F31
:10081000171500001305855797F5FF0F9385857E03
:100820001386018163FCC5008322050023A05500C7
:100830001305450093854500E3E8C5FE1385018156
:10084000938501976378B5002320050013054500C3
:10085000E36CB5FEEF008045EF0010766F000000FE
:040860006F00000025
:1008640097F7FFFF9387C779638807001715000080
:10087400130505106F10C00A67800000970100106F
:100884009381014613850181138601973306A6409F
:1008940093050000EF10001D171500001305450D0A
:1008A400EF100008EF1080120325010093054100AA
:1008B40013060000EF0010706F10C007678000007F
:1008C4001385018193870181638AA70017F3FFFFD2
:1008D40013030373630403006700030067800000CD
:1008E4001385018193850181B385A54093D5254066
:1008F40093D7F501B385B70093D51540638A0500F6
:1009040017F3FFFF1303C36F6304030067000300BF
:100914006780000083C7018163900704130101FF0E
:1009240023261100EFF0DFF997F7FFFF9387476D58
:10093400638A07001715000013050544970000009B
:10094400E70000008320C100930710002388F18092
:1009540013010101678000006780000097F7FFFF23
:100964009387076A63860702130101FF9385018356
:1009740017150000130545402326110097000000B9
:10098400E70000008320C100130101016FF05FF54F
:100994006FF01FF5130101FE232E810013040102E1
:1009A4002326A4FE2324B4FE032784FE8327C4FE47
:1009B40023A0E700130000000324C1011301010276
:1009C40067800000130101FE232E8100130401023D
:1009D4002326A4FE2324B4FE8327C4FE032784FE17
:1009E40023A2E7008327C4FE83A70700032784FE0E
:1009F40023A4E700130000000324C1011301010232
:100A040067800000130101FE232E810013040102FC
:100A14002326A4FE2324B4FE032784FE8327C4FED6
:100A240023A0E7008327C4FE2382070013000000ED
:100A34000324C1011301010267800000130101FDB9
:100A44002326810213040103232EA4FC93870500AB
:100A5400A30DF4FC8327C4FD83A707002326F4FE1B
:100A64008327C4FE83A707002324F4FE832784FE80
:100A740093F71700638607009307F0FF6F004005A4
:100A8400832784FE93F737C02324F4FE8347B4FD01
:100A940093972700032784FEB367F7002324F4FE0B
:100AA4008327C4FE032784FE23A0E700832784FE54
:100AB40013E727008327C4FE23A0E700832784FECF
:100AC40013F7D7FF8327C4FE23A0E7009307000092
:100AD400138507000324C10213010103678000008A
:100AE400130101FD2326810213040103232EA4FC18
:100AF400232CB4FC8327C4FD83A707002326F4FE1C
:100B04008327C4FE83A707002324F4FE832784FEDF
:100B140093F70740638607009307F0FF6F00800593
:100B2400032784FEB7170000938707803367F70015
:100B34008327C4FE23A0E700032784FEB7F7FFFF43
:100B44009387F77F3377F7008327C4FE23A0E7005A
:100B54008327C4FE83A707002324F4FE832784FE8F
:100B640093D7C70013F7F70F832784FD2380E7008B
:100B740093070000138507000324C1021301010336
:100B840067800000130101FD232681021304010381
:100B9400232EA4FC93870500232AC4FCA30DF4FC94
:100BA4008327C4FD83A70700938747002326F4FE09
:100BB4008347B4FD9397170093E717001387070043
:100BC4008327C4FE23A0E7008327C4FD0347B4FDA5
:100BD4002382E7008327C4FD83A707009387870048
:100BE4002326F4FE832744FD83D707009387F7FF6A
:100BF40013870700832744FD83D727009387E7FFE4
:100C0400939707013367F7008327C4FE23A0E70007
:100C14008327C4FD83A707009387C7002326F4FE18
:100C2400832744FD83D747009387F7FF1387070083
:100C3400832744FD83D767009387E7FF93970701D2
:100C44003367F7008327C4FE23A0E70013000000E6
:100C54000324C1021301010367800000130101FD95
:100C64002326810213040103232EA4FC8327C4FD3D
:100C740083A70700938747002326F4FE8327C4FD38
:100C840083C747009397170093E71700138707005C
:100C94008327C4FE23A0E700130000000324C1023D
:100CA4001301010367800000130101FF2326810063
:100CB40013040101B7170000938707F273905730AC
:100CC400B7270000938787887390073013000000CC
:100CD4000324C1001301010167800000130101FE18
:100CE400232E8100130401022326A4FE2324B4FE30
:100CF4008327C4FE032784FE23A0E700130000001B
:100D04000324C1011301010267800000130101FDE6
:100D14002326810213040103232EA4FC232CB4FCF8
:100D2400F32740F12326F4FE8327C4FE2324F4FE94
:100D34008327C4FD03A70700832784FE9397C70076
:100D44003307F700B7072000B307F7002322F4FEA8
:100D5400832744FE032784FD23A0E700130000003B
:100D64000324C1021301010367800000130101FD84
:100D74002326810213040103232EA4FC232CB4FC98
:100D8400F32740F12326F4FE8327C4FE2324F4FE34
:100D94008327C4FD03A70700832784FE9397770066
:100DA4003307F700832784FD93D737003307F70011
:100DB400B7270000B307F7002322F4FE832744FE7D
:100DC40083C70700A301F4FE832784FD93F777000C
:100DD40013071000B317F7001397870113578741C0
:100DE400830734FEB367F7009397870193D787414E
:100DF400A301F4FE832744FE034734FE2380E70067
:100E0400130000000324C1021301010367800000E2
:100E1400130101FD2326810213040103232EA4FCE4
:100E2400232CB4FC232AC4FC8327C4FD03A7070096
:100E3400832784FD93972700B307F7002326F4FE46
:100E44008327C4FE032744FD23A0E700130000000A
:100E54000324C1021301010367800000130101FD93
:100E64002326810213040103232EA4FCF32740F15B
:100E74002326F4FE8327C4FE2324F4FE8327C4FD23
:100E840003A70700832784FE9397C7003307F7005F
:100E9400B707200093874700B307F7002322F4FE27
:100EA400832744FE83A70700138507000324C10298
:100EB4001301010367800000130101FD2326810251
:100EC40013040103232EA4FC232CB4FCF32740F1C8
:100ED4002326F4FE8327C4FE2324F4FE8327C4FDC3
:100EE40003A70700832784FE9397C7003307F700FF
:100EF400B707200093874700B307F7002322F4FEC7
:100F0400832744FE032784FD23A0E7001300000089
:100F14000324C1021301010367800000130101F8D7
:100F240023221100232421002326310023284100F9
:100F3400232A5100232C6100232E710023208102D7
:100F4400232291022324A1022326B1022328C102D1
:100F5400232AD102232CE102232EF10223200105AE
:100F640023221105232421052326310523284105A5
:100F7400232A5105232C6105232E71052320810783
:100F8400232291072324A1072326B1072328C1077D
:100F9400232AD107232CE107232EF10773252034BC
:100FA400F32510341356F50163060600EF0080099B
:100FB4006F008000EF0000118320410003218100B5
:100FC4008321C10003220101832241010323810102
:100FD4008323C101032401028324410203258102E6
:100FE4008325C102032601038326410303278103CA
:100FF4008327C103032801048328410403298104AE
:101004008329C104032A0105832A4105032B810591
:10101400832BC105032C0106832C4106032D810675
:10102400832DC106032E0107832E4107032F810759
:10103400832FC10713010108730020306F000000E3
:101044006F000000130101FE232E1100232C8100E8
:10105400130401022326A4FE2324B4FE0327C4FEA2
:10106400B7070080938777006308F7020327C4FE5D
:10107400B70700809387B7006306F7020327C4FE0F
:10108400B7070080938737006312F70297000000C8
:10109400E70000006F00C00197000000E7000000B7
:1010A4006F000001EF00805E6F00800013000000FD
:1010B400130000008320C1010324810113010102F4
:1010C40067800000130101FE232E81001304010236
:1010D4002326A4FE2324B4FE6F000000130101FEA6
:1010E400232E1100232C8100130401029307050011
:1010F400A307F4FE83A74181638E070083A7418180
:101104009386170023AAD1800347F4FE2380E700C7
:101114006F00C00183A78194638A070003A78194A9
:101124008347F4FE13850700E70007008320C1010D
:10113400032481011301010267800000130101FEF1
:10114400232E1100232C8100130401022326A4FE64
:101154006F00C0018327C4FE138717002326E4FE13
:101164008387070013850700EFF05FF78327C4FE2A
:1011740083870700E39007FE130000008320C1016A
:10118400032481011301010267800000130101FBA4
:10119400232611042324810413040105232EA4FA15
:1011A400232CB4FA8327C4FB13871700232EE4FAF5
:1011B40083C70700A30BF4FC830774FD638807440B
:1011C400030774FD93075002630AF700830774FD55
:1011D40013850700EFF09FF06F000043232E04FCFB
:1011E4008327C4FB13871700232EE4FA83C7070061
:1011F400A30BF4FC030774FD930700036312F702C7
:1012040093071000232EF4FC8327C4FB13871700D5
:10121400232EE4FA83C70700A30BF4FC6F00C0027B
:10122400030774FD9307D0026310F70293072000AD
:10123400232EF4FC8327C4FB13871700232EE4FA20
:1012440083C70700A30BF4FC232004FE6F000004F3
:10125400032704FE9307070093972700B387E7004B
:101264009397170013870700830774FDB307F700EC
:10127400938707FD2320F4FE8327C4FB13871700FD
:10128400232EE4FA83C70700A30BF4FC030774FDC1
:101294009307F00263D8E700030774FD93079003F4
:1012A400E3D8E7FA030774FD9307C0066308F70061
:1012B400030774FD9307C0046312F7028327C4FD78
:1012C40093E74700232EF4FC8327C4FB13871700FE
:1012D400232EE4FA83C70700A30BF4FC830774FDF1
:1012E400638A0732834774FD230BF4FC030764FD10
:1012F4009307000663DAE700834764FD938707FEDC
:1013040093F7F70F230BF4FC830764FD9387E7FB44
:10131400130760016362F71013972700B7070010E3
:1013240093870700B307F70083A7070067800700C8
:10133400832784FB13874700232CE4FA83A7070041
:101344002328F4FC232204FE6F000001832744FEBB
:10135400938717002322F4FE032704FD832744FE0A
:10136400B307F70083870700E39207FE6F00C0000E
:1013740013050002EFF09FD68327C4FD93F72700DF
:10138400639C0700832744FE138717002322E4FE8F
:10139400032704FEE3EEE7FC032504FDEFF01FDA68
:1013A4006F00C00013050002EFF05FD3832744FEF3
:1013B400138717002322E4FE032704FEE3E4E7FE79
:1013C4006F008024832784FB13874700232CE4FACF
:1013D40083A707009397870193D787411385070055
:1013E400EFF0DFCF6F004022930720002326F4FEA6
:1013F4006F008003930780002326F4FE6F00C00271
:101404009307A0002326F4FE6F0000029307000157
:101414002326F4FE6F004001830774FD1385070043
:10142400EFF0DFCB6F00401E8327C4FD93F7470026
:10143400638C0700832784FB13874700232CE4FA7B
:1014440083A707006F004003030764FD930740046C
:10145400631CF700832784FB13874700232CE4FADB
:1014640083A707006F004001832784FB138747008D
:10147400232CE4FA83A70700232CF4FC030764FD60
:10148400930740046312F702832784FD63DE070099
:10149400832784FDB307F040232CF4FC8327C4FD89
:1014A40093E78700232EF4FC232404FE032784FD02
:1014B4008327C4FEB377F702230BF4FC032784FDD0
:1014C4008327C4FEB357F702232CF4FC030764FDFF
:1014D4009307900063D6E702030774FD9307800720
:1014E4006316F700930770026F0080009307700083
:1014F400034764FDB387E70093F7F70F230BF4FC6E
:10150400834764FD9387070393F6F70F832784FECD
:10151400138717002324E4FE13978601135787418A
:10152400930604FFB387F6002388E7FC832784FD32
:1015340063880700032784FE9307F000E3F8E7F6C7
:101544008327C4FD93F7870063800702832784FE03
:10155400138717002324E4FE130704FFB307F700DF
:101564001307D0022388E7FC832784FE2322F4FE9A
:101574008327C4FD93F717006386070093070003CE
:101584006F00800093070002230BF4FC6F0000013E
:10159400830764FD13850700EFF05FB48327C4FD60
:1015A40093F72700639C0700832744FE13871700E3
:1015B4002322E4FE032704FEE3ECE7FC832784FEF6
:1015C4009387F7FF2324F4FE832784FE130704FF85
:1015D400B307F700838707FD13850700EFF01FB0FB
:1015E400832784FEE39C07FC6F00C0001305000200
:1015F400EFF0DFAE832744FE138717002322E4FEB7
:10160400032704FEE3E4E7FE6FF0DFB913000000F4
:101614006F00800013000000130000008320C10449
:10162400032481041301010567800000130101FBF9
:10163400232611022324810213040103232EA4FC74
:101644002322B4002324C4002326D4002328E40046
:10165400232AF400232C0401232E140193070402EB
:10166400938747FE2326F4FE8327C4FE9385070051
:101674000325C4FDEFF09FB1130000008320C102D5
:10168400032481021301010567800000130101FE98
:10169400232E1100232C810013040102138581825F
:1016A400EFF0CFFB2326A4FE0327C4FE93072000FC
:1016B400630CF7000327C4FE93073000631AF70096
:1016C400EF0040036F000001130000006F00800072
:1016D400130000008325C4FE13858182EFF0CFFD43
:1016E400130000008320C1010324810113010102BE
:1016F40067800000130101FE232E1100232C8100BA
:10170400130401026F00000403D7C1829307F00F92
:1017140063E0E70283D7C182938607000347F4FEA0
:10172400B707001093878752B387F6002380E7003A
:1017340083D7C182938717001397070113570701B3
:101744002396E1829307F4FE9385070013850182B3
:10175400EFF00FB993070500E38807FA13850182B8
:10176400EFF0CFCF130000008320C10103248101D7
:101774001301010267800000130101FE232E1100F2
:10178400232C81001304010293070500A307F4FE30
:101794008347F4FE9385070013850182EFF00FAAB7
:1017A400130000008320C1010324810113010102FD
:1017B40067800000130101FE232E1100232C8100F9
:1017C40013040102B7170000938707807390473012
:1017D400B70500F013858182EFF04FD09305000028
:1017E40013858182EFF08FD2130610009305300029
:1017F40013858182EFF0CFE1930530001385818258
:10180400EFF0CFD6B705004013858181EFF08F98B4
:10181400930500F013858181EFF0CF9AB73500402E
:1018240013850182EFF00F9E03A781802322E4FE3B
:101834009387818083A747002324F4FE930744FE03
:10184400138607009305800013850182EFF08FB3A0
:10185400371700001307C77723A4E194B7070010D4
:101864001385C705EFF09FDCB70700101385070841
:10187400EFF0DFDB1300000083D7C182E38E07FEA5
:1018840083D7C18293850700B70700101385C70863
:10189400EFF0DFD9231704FE6F0000030357E4FEC3
:1018A400B707001093878752B307F70083C7070071
:1018B4009385070013850182EFF04F988357E4FE68
:1018C400938717002317F4FE83D7C1820357E4FEDE
:1018D400E366F7FC9305000213850182EFF00F968F
:1018E40003D7C182930710006312F702B7070010F1
:1018F40003C7875293072003631AF700B707001042
:101904001385470AEFF09FD26F000001B70700105C
:101914001385C70AEFF09FD1239601826FF0DFF49D
:10192400930505009306000013060000130500004C
:101934006F000021130101FF93050000232481009F
:101944002326110013040500EF00802E97070000E2
:101954009387874203A507008327C5036384070091
:10196400E780070013050400EFE05FEF130101FFB8
:1019740023248100970700009387C74017040000C1
:10198400130484403304F4402326110023229100DD
:101994001354244063020402931424009384C4FF68
:1019A400B384F40083A704001304F4FF9384C4FFF6
:1019B400E7800700E31804FE032481008320C100AC
:1019C40083244100130101016FE05FEF130101FF64
:1019D4002324810023202101170400001304043A66
:1019E4001709000013098939330989402326110096
:1019F4002322910013592940630E09009304000027
:101A0400832704009384140013044400E780070030
:101A1400E31899FE17040000130444361709000064
:101A2400130949363309894013592940EFE01FE966
:101A3400630E0900930400008327040093841400B8
:101A440013044400E7800700E31899FE8320C100D3
:101A540003248100832441000329010013010101AF
:101A6400678000001303F00013070500637EC302C0
:101A74009377F7006390070A63920508937606FF4D
:101A84001376F600B386E6002320B7002322B700BE
:101A94002324B7002326B70013070701E366D7FE04
:101AA4006314060067800000B306C34093962600C3
:101AB40097020000B38656006780C6002307B7006C
:101AC400A306B7002306B700A305B7002305B70094
:101AD400A304B7002304B700A303B7002303B7008C
:101AE400A302B7002302B700A301B7002301B70084
:101AF400A300B7002300B7006780000093F5F50F3B
:101B040093968500B3E5D50093960501B3E5D5001A
:101B14006FF0DFF69396270097020000B386560015
:101B240093820000E78006FA93800200938707FF00
:101B34003307F7403306F600E378C3F66FF0DFF3BC
:101B4400130101FE232C810017F4FF0F13044499A1
:101B5400232A91009304050003250400232821016E
:101B64002326310123244101232E1100138905006A
:101B7400130A060093890600EF00401F9707000030
:101B84009387871F03A707008327871463860708A3
:101B940003A747001308F001032504006344E80881
:101BA40013182700639E04021307170023A2E700FB
:101BB400B387070123A42701EF00801B130500004E
:101BC4008320C101032481018324410103290101EC
:101BD4008329C100032A81001301010267800000E8
:101BE400B385070123A4450983A6871813061000AB
:101BF4003316E600B3E6C60023A4D71823A4351190
:101C040093062000E392D4FA83A6C71833E6C600ED
:101C140023A6C7186FF05FF99307C7142324F7149A
:101C24006FF01FF7EF00C0141305F0FF6FF05FF9BA
:101C3400130101FD2328610117FBFF0F130B4B8ACE
:101C4400232A5101930A050003250B00232E310199
:101C5400232C410123267101232291012326110201
:101C6400232481022322910223202103232481019E
:101C7400938B0500EF00800F970700009387C70F31
:101C840083AC0700130A10009309F0FF03A98C1416
:101C940063080902832449001384F4FF63420402A5
:101CA40093942400B304990063880B0483A744101D
:101CB400638477051304F4FF9384C4FFE31634FFAD
:101CC4000324810203250B008320C10283244102E3
:101CD400032901028329C101032A8101832A4101C5
:101CE400032B0101832BC100032C8100832C4100B1
:101CF400130101036F00C0078327490083A6440032
:101D04009387F7FF638A870423A20400E38406FA17
:101D14008327891833178A00032C4900B377F70007
:101D2400639E0700E780060083274900E39087F756
:101D340083A78C14E38027F96FF05FF58327C91814
:101D440083A544083377F700631C070013850A0052
:101D5400E78006006FF05FFD232289006FF01FFB10
:101D640013850500E78006006FF01FFC6780000004
:041D74006780000084
:041D7800B80000109F
:081D7C0064080000600900008A
:041D8400180900003A
:101D8800EC130000C8130000041400001C14000029
:101D98001C1400001C1400001C1400001C1400007B
:101DA8001C1400001C1400001C1400001C1400006B
:101DB8001C140000F81300001C1400001C14000080
:101DC8001C140000341300001C140000041400004C
:101DD8001C1400001C1400001014000068656C6CD2
:101DE8006F20776F726C6420310D0A68656C6C6FB8
:101DF80020776F726C6420320D0A0D0A0000000013
:101E080031202B2031203D203F0D0A0072785F6E73
:101E1800203D20256420636F6E74656E74203D201C
:101E280000000000676F6F640D0A00006261640DB6
:101E38000A0000000000000000000000A4030010D9
:101E48000C040010740400100000000000000000E2
:101E5800000000000000000000000000000000007A
:101E6800000000000000000000000000000000006A
:101E7800000000000000000000000000000000005A
:101E8800000000000000000000000000000000004A
:101E9800000000000000000000000000000000003A
:101EA800000000000000000000000000000000002A
:101EB800000000000000000000000000000000001A
:101EC800000000000000000000000000000000000A
:101ED80000000000000000000000000000000000FA
:101EE80001000000000000000E33CDAB34126DE697
:101EF800ECDE05000B000000000000000000000000
:101F080000000000000000000000000000000000C9
:101F180000000000000000000000000000000000B9
:101F280000000000000000000000000000000000A9
:101F38000000000000000000000000000000000099
:102268002C060010000000000A0060EA0A0060EA7C
:040000030000088071
:00000001FF
