:100800009701001093810178177100101301817F07
:10081000176500001305057597F5FF0F9385857E15
:100820001386818063FCC5008322050023A0550048
:100830001305450093854500E3E8C5FE13858180D7
:10084000938581006378B5002320050013054500DA
:10085000E36CB5FEEF008062EF0080006F000000E7
:10086000130101F913064100930501001305C104AA
:100870002326110623248106232291062320210703
:10088000232E3105232C410523200100EF40903910
:1008900013051000EF50C02F2314A10013052000F2
:1008A000EF50002F2315A10013053000EF50402E0C
:1008B0002316A10013054000EF50802D2322A10232
:1008C00013055000EF50C02C6302053E2324A10203
:1008D00083208100639C00440314C1006306044626
:1008E000832781021389818313F7270093F617006A
:1008F0003335E000232821012314010413F84700B5
:10090000338AA6006308080093081A009399080127
:1009100013DA0901130E007D33554E0393000000D6
:100920002320A102639A063A63180738631E083A27
:1009300063900630631C073093F54700638A050017
:100940000326C1018315810003250102EF405030C9
:1009500003294102631A0904930610002322D102DD
:1009600003264102131526003308C500931818000A
:1009700023221103EF40D02013058100EF20D04344
:10098000EF401022EF40D023EF405026E30A05FC51
:100990009309A00033DAA902832E4102130E1A0034
:1009A000338FCE032322E103B70F001013858F0688
:1009B000EF008066EF40D01C13058100EF20D03F90
:1009C000EF40101EEF40D01F930905000315810072
:1009D000138A050093050000EF50101A93050500D7
:1009E0000315A100EF505019930505000315C10030
:1009F000EF5090189305050003150102EF50D01732
:100A0000B7820000138352B0130905006304653EEA
:100A10006372A326B7930000138723A06306E53E05
:100A2000B7F400009387549F631CF526B7050010A8
:100A300013858510EF00405E13043000832E810281
:100A40002314010413FF1E0063000F04B7020010FB
:100A5000931F14001383C205B300F301035621044E
:100A600083D600006302D602B7030010930500008E
:100A700013858316EF00405A03578104832E8102A9
:100A8000930417002314910493F72E006380070446
:100A9000B70600101386C64F931514003305B60031
:100AA00083560500035641046302D602370800103E
:100AB0009305000013058819EF0000568358810440
:100AC000832E8102138E18002314C10593FE4E005D
:100AD00063800E02370F001013141400930F8F5011
:100AE000B3828F000356610483D602006318D620B8
:100AF00083548104EF50D03083250102B387A400D2
:100B0000B7060010138506201396070193540601BB
:100B1000EF008050370500109385090013058521EB
:100B2000EF00804F93050A0013850900EF40100C79
:100B3000370800109305050013050823EF00C04D8A
:100B40001385090093050A00EF40500A631205223D
:100B50001385090093050A00EF405009139A040118
:100B60009309900013540A4163F6A91E832541029C
:100B7000370F001013054F3EEF00004AB70F00106B
:100B8000B70200109385CF3F13858240EF00C04825
:100B900037030010B7030010930503421385834AFF
:100BA000EF00804737070010B70700101305874C88
:100BB0009385074CEF004046930509003709001064
:100BC0001305094EEF0040458326810213F61600F7
:100BD0006314062093F426006392041E13F8460063
:100BE0006312081C03560104B709001093050000A6
:100BF00013854936EF004042630E0418635080129B
:100C0000B70500101385C52EEF0000418320C106F3
:100C10000324810683244106032901068329C10593
:100C2000032A8105130500001301010767800000F6
:100C30000316810083254101EF20C04083278102F4
:100C40002326A10213F72700E30807CE8317A1008C
:100C50000314810083258101032501029394070178
:100C60009306010333E68400EF20103983278102C5
:100C70006FF09FCCB72600001386268F6300C51A3D
:100C8000375800009308F8EA631C1501370E00106E
:100C900013054E0DEF004038130420006FF01FDAEB
:100CA000B70001009384F0FF6FF0DFE4930770005A
:100CB0002324F1026FF0DFC1B38EA002138F100066
:100CC000931F0F0193D00F01B302D901232C5100C0
:100CD000E30008C66F004001232A210193001000A1
:100CE000E30607C46FF05FFD3383A002B30369001E
:100CF000232E7100E38006C46FF09FF337030010CA
:100D0000930500001305C31CEF00003183538104D9
:100D1000138713002314E1046FF09FDD370A0010DE
:100D200013050A30EF00402F6FF05FEE130710003D
:100D3000E398E0BA8312C100E39402BA3733153462
:100D400093035341232471009304600623169100FA
:100D50006FF01FB9B705001013850526EF00C02BF3
:100D6000138E1400931E0E0113D40E416FF01FE07A
:100D70000324410293050A0013850900EF40006730
:100D8000B355A402B708001013858824EF00C028CB
:100D90006FF01FDC370E001013050E2AEF00C0277E
:100DA0006FF0DFE603566104B708001093050000FA
:100DB00013854838EF0040266FF0DFE20356410408
:100DC00037050010930500001305453AEF00C024D5
:100DD000832681026FF09FE003562104B7000010C4
:100DE000930500001385403CEF0000238326810219
:100DF0006FF05FDEB70000101385400AEF00C021DE
:100E0000130410006FF09FC337040010130544074C
:100E1000EF008020130400006FF05FC23705001060
:100E200013058513EF00401F130440006FF01FC12E
:100E30002320B500230205006780000083270500FA
:100E400003A707009376170063960602937237C0D4
:100E50009395250033E3550023A067009363230097
:100E60001375D3FF23A0770023A0A700130500006C
:100E7000678000001305F0FF67800000B7170000CF
:100E8000938287EA7390523037230000930383885C
:100E900073900330735000B0735000B8735020B09B
:100EA000735020B867800000130101F8232211005D
:100EB000232421002326310023284100232A510026
:100EC000232C6100232E7100232081022322910212
:100ED0002324A1022326B1022328C102232AD102FE
:100EE000232CE102232EF1022320010523221105E8
:100EF000232421052326310523284105232A5105D2
:100F0000232C6105232E71052320810723229107BD
:100F10002324A1072326B1072328C107232AD107A9
:100F2000232CE107232EF10773252034F3251034F9
:100F30001356F50163060600EF0080096F0080007C
:100F4000EF00800C83204100032181008321C10038
:100F50000322010183224101032381018323C10173
:100F60000324010283244102032581028325C10257
:100F70000326010383264103032781038327C1033B
:100F80000328010483284104032981048329C1041F
:100F9000032A0105832A4105032B8105832BC10503
:100FA000032C0106832C4106032D8106832DC106E7
:100FB000032E0107832E4107032F8107832FC107CB
:100FC00013010108730020306F0000006F00000063
:100FD000B707008013877700630CE5009382B700A2
:100FE00063005502138337006308650067800000C3
:100FF00017030000670000001703000067000000EF
:1010000017030000670000006F000000732500B0A8
:10101000F32500B867800000130101F723202107A2
:10102000232E3105232C4105232861052324810526
:10103000232EB1032322F10823261106232481063F
:1010400023229106232A5105232671052322910587
:101050002320A105232AB106232CC106232ED10665
:101060002320E1082324010923261109B70D0010CC
:1010700083000500130B410793870D00232E6101A8
:101080002324F10093090002130C1500638A000267
:10109000130750026380E0089384818083AC0400CE
:1010A000638E0C0413851C0023A0A40023801C0065
:1010B00013050C0083000500130C1500E39A00FCD7
:1010C0008320C106032481068324410603290106E7
:1010D0008329C105032A8105832A4105032B0105C4
:1010E000832BC104032C8104832C4104032D0104B0
:1010F000832DC103130101096780000083A5C1800E
:10110000E38805FA13F5F00FE780050013050C00DE
:101110006FF05FFA8306150093020003E38E5658C2
:101120001303D002E382665A130C2500930A0000D1
:10113000938306FD13F4F30F93049000930B0000C8
:1011400063E6840213952B00B30B750193951B0086
:10115000130C1C003386D5008306FCFF930B06FDA1
:10116000138806FD9378F80FE3FE14FD93FCF6FD5B
:10117000130DC0046382AC05E38406F4130E00066D
:10118000938F06006358DE00938E06FE139F8E0138
:10119000935F8F41938DEFFB93F7FD0F93006001F9
:1011A000E3ECF04E832281001397270033035700AE
:1011B000832303006780030083060C0093EA4A0040
:1011C000130C1C006FF05FFB93F84A0093044B0074
:1011D000032F0B00E38E0864130B4004130E0F0063
:1011E00063846F016F10C06093050000930EA00030
:1011F00063580F00330EE04193EA8A0093058000A4
:1012000013058007130D70006394A600130D700280
:101210003376DE03130890003354DE03E376C824EC
:10122000B30CCD0093F6FC0F138B040093840603DC
:1012300023009102E364DE25130F9000337ED40374
:10124000B358D403937FFE0F6376CF01B30DCD0166
:1012500093FFFD0F93800F03A30011026374D40169
:101260006F10004013079000B3F2D803B3D7D80330
:1012700093F3F20F6376570033035D009373F30F1C
:10128000138503032301A10263F4D8016F10003E0C
:101290001308900033F4D703B3DCD7039376F40F2D
:1012A0006376880033068D009376F60F93840603E9
:1012B000A301910263F4D7016F10803D130E9000DB
:1012C00033FFDC03B3DDDC03937FFF0F6376EE01B6
:1012D000B308ED0193FFF80F93800F03230211026F
:1012E00063F4DC016F10803B13079000B3F2DD0361
:1012F000B3D7DD0393F3F20F6376570033035D003A
:101300009373F30F13850303A302A10263F4DD01BA
:101310006F10003B13049000B3FCD70333D8D703FE
:1013200093F6FC0F6376940133069D019376F60FD6
:10133000938406032303910263F4D7016F100039ED
:10134000130E9000337FD803B35DD803937FFF0F54
:101350006376EE01B308ED0193FFF80F93800F035E
:10136000A30311026374D8016F10003A13079000B1
:10137000B3F2DD03B3D7DD0393F3F20F63765700C7
:1013800033035D009373F30F138503032304A1025A
:1013900063F4DD016F10003813049000B3FCD70331
:1013A000B3D4D70313F6FC0F6376940133089D0181
:1013B0001376F80F93060603A304D10263F4D70152
:1013C0006F108037130E900033FFD403B3DDD403C6
:1013D000937FFF0F6376EE01B308ED0193FFF80FE3
:1013E00093800F032305110263F4D4016F1080353D
:1013F00013079000B3F2DD03B3D7DD0393F3F20FCD
:101400006376570033035D009373F30F1385030373
:10141000A305A10263F4DD016F10003513049000F1
:10142000B3FCD703B3D4D70313F6FC0F6376940150
:1014300033089D011376F80F930606032306D102A5
:1014400063F4D7016F100033130E900033FFD40301
:10145000B3DDD403937FFF0F6376EE01B308ED0194
:1014600093FFF80F93800F03A306110263F4D401D6
:101470006F10C03113079000B3F2DD03B3D7DD0363
:1014800093F3F20F6376570033035D009373F30F0A
:10149000138503032307A10263F4DD016F104031BC
:1014A00013049000B3FCD70363749401B30C9D0143
:1014B00013FDFC0F93040D03A3079102930EF0009C
:1014C00093040001638C05009305010333889500A4
:1014D0001306D0022308C8FE93842E0093F61A0048
:1014E000330ED040137F0E01930C0F02B38D9B403F
:1014F00093F8FC0F1384818093F27D002322110165
:1015000093FA2A0083270400938D04006388020E57
:10151000138D140063900A1AE3F47433E38A0740CE
:1015200093801700238097012320140093870000E5
:1015300013071000930D0D006382E20C13032000CB
:101540006382620A930330006382720813054000CD
:101550006382A206930E50006382D2059305600059
:101560006380B202930D1D00639407006F10800129
:1015700013861700238097012320C40093070600D9
:10158000938D1D00639407006F10C005138E170024
:10159000238097012320C40193070E00938D1D0023
:1015A000E3880760938817002380970123201401A4
:1015B00093870800938D1D00E38C0758938F1700C5
:1015C000238097012320F40193870F00938D1D0042
:1015D000E382074E93821700238097012320540053
:1015E00093870200938D1D00E38E074893801700B8
:1015F000238097012320140093870000138D1D0082
:10160000639A0A0AE3FE7D23E38A073613851700EF
:10161000238097012320A40093070500E38C07365D
:1016200013881700238097012320040193070800E3
:10163000E38E0736138E1700238097012320C40101
:1016400093070E00E38007389386170023809701E5
:101650002320D40093870600E382073813871700FE
:10166000238097012320E40093070700E3840738D1
:101670009382170023809701232054009387020050
:10168000E3860738938017002380970123201400F6
:1016900093870000E3880738938E17002380970113
:1016A0002320D40193870E00930D7D00138D1D0020
:1016B000E38A0AF4938CF4FF930A0103B3839A013B
:1016C000038503FFE38A0718938E17002320D401B4
:1016D0002380A70063860C2483250400138DE4FF78
:1016E000130801033306A801030E06FFE38C052649
:1016F00093821500232054002380C50163020D222C
:10170000032304009384D4FF93000103B38C90005F
:1017100003870CFFE30C0334930713002320F4002A
:101720002300E300638E041E83250400138DF4FF61
:10173000130801033306A801830E06FFE380053674
:10174000138F15002320E4012380D501630A0D1CAB
:10175000832204009304FDFF130701033303970062
:10176000830F03FFE38E023A138512002320A400A7
:101770002380F2016386041A832E0400938AF4FF07
:1017800093070103B3855701838305FFE3860E3A70
:1017900093861E002320D40023807E0063820A18D3
:1017A000832F04009384FAFF130F0103B3029F00F9
:1017B000838802FFE38A0F3A138D1F002320A401C0
:1017C00023801F01638E041483230400938CF4FF91
:1017D00013050103B30E950183800EFFE38E033AD8
:1017E000138E13002320C40123801300638A0C127C
:1017F000832804009384FCFF93060103B38F9600B3
:1018000003860FFFE382083C138F18002320E401B6
:101810002380C8006386041083200400938CF4FFA7
:10182000130D0103B3039D01838A03FFE38C00487A
:1018300013881000232004012380500163820C0EC2
:10184000032604009384FCFF130E0103B3089E00DB
:10185000838508FFE304064C13031600232064006D
:101860002300B600638E040A832A0400938CF4FFDD
:10187000130F0103B3009F01838200FFE3820A5824
:1018800093871A002320F40023805A00638A0C08EF
:10189000832504009384FCFF13080103330698009A
:1018A000030506FFE38A0556138715002320E4008D
:1018B0002380A5006386040683220400938CF4FF32
:1018C00013030103B30A9301838F0AFFE3820256D5
:1018D000138F12002320E4012380F20163820C04A1
:1018E000832E04009384FCFF13050103B30C9500C1
:1018F00083830CFFE38A0E5413881E002320040107
:1019000023807E00638E0400032604008385FCFE92
:10191000E30E064493081600232014012300B600AA
:10192000B386BB4193FA760063800A0E63F27DF9B9
:10193000832F0400E38E0F0093821F0023205400A6
:1019400023803F0113031000938D1D00638E6A0AEC
:10195000130D2000638EAA0993043000638E9A064B
:1019600093004000638E1A04930C5000638E9A0318
:1019700093036000638E7A00032F0400E3020F429A
:1019800013051F002320A40023003F01938D1D0099
:1019900083270400E38E07341388170023200401F3
:1019A00023803701938D1D0003260400E30A061CE3
:1019B000930816002320140123003601938D1D0087
:1019C000832A0400E3820A14938F1A002320F4016F
:1019D00023803A01938D1D0003270400E30E0706C0
:1019E000930217002320540023003701938D1D001C
:1019F000032D0400E3060D0493001D0023201400B2
:101A000023003D01938D1D0063F47DEB832C0400C6
:101A1000638E0C64138F1C002320E40123803C019F
:101A2000832E0400938D1D0063800E6613851E00B7
:101A30002320A40023803E018325040063820566E1
:101A4000138615002320C40023803501032E0400D3
:101A500063040E66930A1E002320540123003E01F6
:101A60008326040063860666138716002320E4009D
:101A700023803601032304006308036693021300E6
:101A8000232054002300330183240400638A046666
:101A90009380140023201400238034018323040046
:101AA000638C0366938E13002320D40123803301BB
:101AB000938D7D006FF05FF5938F818083A00F0081
:101AC00013074B0083220B00638A0044138310002A
:101AD00023A06F0023805000130B070013050C0098
:101AE0006FF04FDD13F44A0093044B00032E0B00FC
:101AF000630E044093050000930E00016FF04FF059
:101B000083240B0013040000130B4B008386040096
:101B1000638A06001304140033858400030605005D
:101B2000E31A06FE33888B40137D380093FA2A00AF
:101B3000630A0D06930C140063900A16E372740B8B
:101B40009388818003AE0800E30A0E18130F1E006D
:101B500023A0E80123003E01930F100013840C0022
:101B60006302FD05930D20006300BD039380818017
:101B700083A7000013841C00E38E074493821700A0
:101B800023A0500023803701138381808323030027
:101B900013041400E38E0322938613002320D30042
:101BA00023803301930C140063980A0EE37A7403C4
:101BB00013848180032F0400630A0F70930D1F00AC
:101BC0002320B40123003F019380818083A700007C
:101BD000638C07709382170023A050002380370185
:101BE00013838180832303006388032E13851300EE
:101BF0002320A30023803301138D818003260D0051
:101C0000630A062E1308160023200D012300360157
:101C100013843C006FF01FF993FC4A0093044B00BF
:101C2000032E0B00E3980C10930E8000032E0B0084
:101C3000930500006FF0CFDC93F34A0093044B0050
:101C4000032E0B006388032C930E2000930580075E
:101C5000130D70006394B600130D70023376DE032B
:101C6000930500003354DE039376F60F138B0400C4
:101C700093840603230091026370DEDD9304100059
:101C8000930E00006FF01F8403AEC18063060E0048
:101C90001375F50FE7000E000385040063040502C9
:101CA000938C818083A80C0093841400E38E08FC3D
:101CB0002380A80003850400938E180023A0DC0174
:101CC000E31005FEB3848B4013FD7400630E0D0E0C
:101CD000637074BF1386818003280600E306080240
:101CE000930C18002320960123003801930810005C
:101CF00013041400630A1D0D130E20006308CD0B9E
:101D0000930E30006306DD09130F40006304ED07F6
:101D1000930F50006302FD05930D60006300BD0347
:101D20009380818083A70000E38A072893821700AD
:101D300023A05000238037011304140013838180F3
:101D400083230300E38A0324938613002320D30014
:101D5000238033011304140013858180832405003C
:101D6000E38C0416138614002320C500238034015D
:101D70001304140013888180832A0800E38E0A026A
:101D800093881A002320180123803A0113041400B9
:101D9000138E8180832E0E00638E0E7A938F1E0029
:101DA0002320FE0123803E0113041400938D8180C3
:101DB00083A00D00638400781387100023A0ED003A
:101DC0002380300113041400637474AF9382818004
:101DD00003A30200630E03169305130023A0B200B1
:101DE000230033011385818083240500130414002C
:101DF00063800418138D14002320A501238034016F
:101E0000138681800328060063020818930C1800CB
:101E100023209601230038019388818003AE0800B7
:101E200063040E18130F1E0023A0E80123003E01D7
:101E3000938F818083AD0F0063860D1893801D0002
:101E400023A01F0023803D01138781808322070088
:101E500063880218938312002320770023803201C5
:101E60009385818003A50500630A05189306150074
:101E700023A0D50023003501138D818003260D009A
:101E8000630C0618930A160023205D012300360117
:101E9000130474006FF05FF3938B818003A40B0035
:101EA000630C0408130D140023A0AB012300D4001D
:101EB00013050C006FF00FA0130C350083062500EE
:101EC000930A10006FF0CFA683062500130C35008F
:101ED000930A20006FF0CFA583A5C180E38E05D0C3
:101EE00013050002E7800500138D818003260D0095
:101EF000E31A06D083A6C180E38C06D01305000246
:101F0000E780060013843C006FF0DFC9930E0001E8
:101F10006FF0DFD1930E20006FF05FD183A7C180F7
:101F2000130B07006386079813F5F20FE78007008D
:101F300013050C006FF00F9883AAC180638A0A967C
:101F400013F5F60FE7800A0013050C006FF08F966B
:101F500083A3C180E38803E813050002E780030040
:101F6000138581808324050013041400E39404E89E
:101F700083A6C180E38606E813050002E780060019
:101F80001386818003280600E31208E883AAC18033
:101F9000E3840AE813050002E7800A009388818041
:101FA00003AE0800E3100EE883AEC180E3820EE8C2
:101FB00013050002E7800E00938F818083AD0F0030
:101FC000E39E0DE683A7C180E38007E813050002C6
:101FD000E78007001387818083220700E39C02E6E5
:101FE00003A3C180E30E03E613050002E70003002C
:101FF0009385818003A50500E31A05E683A4C180CB
:10200000E38C04E613050002E7800400138D818051
:1020100003260D00E31806E603A8C180E30A08E6DC
:1020200013050002E7000800130474006FF0DFD905
:10203000930D4004639ABF7B130E0F006FF0CF9A8D
:10204000938CF4FF930A0103B3839A01930D0D005F
:10205000038503FF639A07E683A7C180638C07E6C5
:102060001375F50FE78007006FF0CFE683A3C180FB
:10207000E388039A13050002E7800300832E04001F
:10208000938D1D00E3940E9A83A7C180E386079A7F
:1020900013050002E780070083250400E392059AF8
:1020A00003A8C180E304089A13050002E7000800B2
:1020B000032E0400E3100E9A83A8C180E382089ADD
:1020C00013050002E780080083260400E39E0698BB
:1020D00083AFC180E3800F9A13050002E7800F00F1
:1020E00003230400E31C039803ADC180E30E0D98A5
:1020F00013050002E7000D0083240400E39A04980E
:1021000083ACC180E38C0C9813050002E7800C00BF
:1021100083230400E398039803AFC180E30A0F9878
:1021200013050002E7000F00938D7D006FF0DF8D37
:1021300083AFC180638E0FBE13F5FC0F23265100C1
:10214000E7800F00832704008322C1006FF04FBE99
:1021500003A7C180630807FE13050002E70007001C
:102160006FF04FFE138FC18083260F00638E06260B
:102170001375FE0FE78006006FF04FD883ADC18066
:10218000638E0DC803254100E7800D0083270400FE
:10219000639807C883A5C180638C05C803254100E7
:1021A000E780050083270400639607C803A6C18063
:1021B000630A06C803254100E700060083270400E0
:1021C000639407C883A8C180638808C803254100B9
:1021D000E780080083270400639207C883AFC180AB
:1021E00063860FC803254100E7800F0083270400A2
:1021F000639007C803A3C180630403C8032541009B
:10220000E700030083270400639E07C683A3C18001
:10221000638203C803254100E7800300832704008D
:10222000639C07C603AFC18063000FC8032541004C
:10223000930D7D00E7000F00832704006FF00FC7A8
:1022400083A4C180638004FC13050002E7800400BE
:10225000938D1D006FF04FFB03A3C180630803F84B
:1022600013050002E70003006FF04FF8138FC180E1
:10227000832A0F0063880A181375F70FE7800A0096
:102280006FF04FCA03A3C180630A03B613F5FC0FB6
:10229000E7000300832704006FF04FB6138FC1805F
:1022A000032E0F00630E0E1613F5FE0FE7000E004F
:1022B0006FF0CFC903A7C180630607B213F5FC0F07
:1022C000E7000700832704006FF0CFB183AFC18020
:1022D000E38C0F8E13050002E7800F00938081804E
:1022E00083A70000E398078E03A7C180E30A078E47
:1022F00013050002E7000700138381808323030096
:10230000E396038E6FF05FBD83A6C180638406EC05
:1023100013050002E7800600938D1D006FF0CFEBE0
:10232000138FC180832C0F00638A0C1013F5FF0FED
:10233000E7800C006FF00FC4138FC18003280F00DB
:10234000630C081013F5F30FE70008006FF00FC5DA
:1023500003ADC180630C0DA613F5FC0FE7000D0063
:10236000832704006FF08FA6138FC18003270F000F
:102370006302071013F5F80FE70007006FF08FC432
:1023800003AEC180630C0EE213050002E7000E00ED
:10239000938D1D006FF0CFE2138FC18083270F0054
:1023A0006388070E13F5F00FE78007006FF00FC486
:1023B00003AFC18063000FA013F5FC0FE7000F000F
:1023C000832704006FF00F9F138FC18003270F0036
:1023D000630E070C1375F60FE70007006FF08FC34D
:1023E00013840C006FF05F8B630C0DD2832A0F00F7
:1023F0009384D4FF93080103B38F980003870FFFE2
:10240000E39C0AE6638E04D0032E0F00138DF4FFC5
:10241000930301033385A301830E05FFE3160EE842
:1024200063000DD0832C0F009304FDFF930601037E
:10243000B3889600838F08FFE39A0CEE638204CE84
:1024400003280F00938AF4FF93000103338D50019A
:1024500083030DFFE31808EE63840ACC03270F0003
:102460009384FAFF13060103330E960083080EFFD0
:10247000E31207F0638604CA83270F00938CF4FFEE
:1024800013030103B30A930183800AFFE39C07F05F
:1024900063880CC803270F009384FCFF9305010396
:1024A00033889500030608FFE31607F2638A04C623
:1024B000938CF4FF9302010333839201830A03FF99
:1024C0006F008000138FC180832E0F0063860E1A69
:1024D00013F5FA0FE7800E006FF04FB683AEC180A0
:1024E000638C0EE613050002E7800E006FF0CFE666
:1024F00083A5C180638805CA13050002E780050033
:10250000938D1D006FF04FCA83AAC18063800AFEBD
:1025100013050002E7800A006FF04FFD138FC180A2
:1025200083260F006382061813F5F50FE780060077
:102530006FF04FB3930E80006FF04FF183A7C1800F
:10254000E382078813050002E780070013041400E4
:102550006FF09F8703AFC180E3080F84130500026B
:10256000E7000F00130414006FF05F84138FC18025
:10257000032E0F0063060EBA13F5F50FE7000E00E9
:102580006FF00FBA03A8C180631408006FE05FFF0B
:1025900013F5FC0FE7000800832704006FE05FFEDF
:1025A00083AEC18063840EBE13050002E7800E0077
:1025B000938D1D006FF0CFBD83ACC18063880CFC90
:1025C00013050002E7800C00130414006FF04FFCA9
:1025D00083A5C180638805DC13050002E780050040
:1025E0006FF04FDC83A6C180639406006FE01FFB91
:1025F00013F5FC0FE7800600832704006FE01FFA45
:10260000138FC180032D0F0063040D0E13F5F20F1D
:10261000E7000D006FF08FA7138FC180032E0F000E
:1026200063000E101375F50FE7000E006FF08FA812
:10263000138FC180032D0F00630C0D1013F5FF0FD6
:10264000E7000D006FF08FA9138FC18083270F0063
:102650006388071213F5F30FE78007006FF08FAA66
:1026600093042000930E10006FE0DFE59304300028
:10267000930E20006FE01FE563840CAA9384FCFF97
:1026800013050103B3079500838507FF6FF05FE92A
:1026900093044000930E30006FE0DFE2930450009B
:1026A000930E40006FE01FE2638C04A6938CF4FF4E
:1026B000930F010333879F01830207FF6FF09FF49D
:1026C00093046000930E50006FE0DFDF930470000E
:1026D000930E60006FE01FDF03ADC180630A0DE859
:1026E00013050002E7000D00130414006FF08FE8DB
:1026F00063880CA29384FCFF93030103B38E9300C1
:1027000003850EFF6FF09FF193048000930E70001D
:102710006FE05FDB93049000930E80006FE09FDA20
:10272000638004A0938CF4FF93080103B38698019F
:10273000838F06FF6FF01FF09304A000930E9000AC
:102740006FE05FD89304B000930EA0006FE09FD7B6
:1027500063880C9C9384FCFF93000103B38C90006E
:1027600083830CFF6FF09FEE9304C000930EB000C4
:102770006FE05FD59304D000930EC0006FE09FD44C
:102780006380049A8385FCFE6FF09FDE9304E00073
:10279000930ED0006FE01FD383A5C180638C05DA50
:1027A00013050002E7800500130414006FF0CFDA70
:1027B0009304F000930EE0006FE0DFD003A7C18028
:1027C000630C07D613050002E7000700130414008A
:1027D0006FF0CFD603A7C180630807BA13050002C4
:1027E000E70007006FF04FBA930EA0006FF00FC420
:1027F000930EA0006FF08FC5031E4500130101FA70
:10280000232C8103232E1104232C8104232A9104D9
:1028100023282105232631052324410523225105A0
:1028200023206105232E7103232A91032328A1036A
:102830002326B103232A01002326B100032C4502DD
:102840006356C07F13060000930E0000130F0000B4
:10285000130300008327C1009376F60F232AD100CB
:1028600063C2073A630C0C7C83244C000329C1002B
:1028700093090C0003982400631C28016F00C00119
:1028800003AA4900032BC100831A2A0063866A0148
:1028900083A90900E39609FE930B00006F00C000B6
:1028A000930B0C00138C0C00832C0C0023207C0158
:1028B000E3980CFE6382093803AD490093081F00BA
:1028C000939D0801831F0D0013DF0D0193F61F0078
:1028D000638C060093D79F4013F717003303E30080
:1028E0009310030113D3000183A20900638C02003B
:1028F00083A3020023A0790003240C0023A08200FC
:1029000023205C00032BC100634A0B00930B1B00C8
:10291000939C0B0113DD0C412326A1011306160025
:102920009318060113D60841E316CEF2131E2F00AA
:10293000B30DDE41330FB301931F0F0193D60F0187
:10294000232ED100130D0500634EB036832B0C00EF
:102950000326C10013040C0003A90B0083A04B0045
:10296000032D49008328090023A2AB01232219006B
:1029700023A01B0123200900634E06208326440068
:102980008325C10003952600630AB50003240400D3
:10299000E31604FE03240C006304040283274C00A6
:1029A0008325C10103950700EF30101D03240400A7
:1029B000232EA100E31404FE03240C00832049000D
:1029C0000327440003230400930B10002322E90093
:1029D000232214002320690023202401930E0000E9
:1029E00013040000130E0000130F100093F27B007D
:1029F000130E1E0093090C00130B000063860208DF
:102A000093031000638A7206130820006380020794
:102A1000130A300063864205930A4000638C520318
:102A2000930D50006382B203930C6000638892019F
:102A300083290C00130B1000638A090A83A909007B
:102A4000130B1B006384090A83A90900130B1B00E5
:102A5000638E090883A90900130B1B00638809080A
:102A600083A90900130B1B006382090883A90900CD
:102A7000130B1B00638C090683A90900130B1B00B1
:102A80006386090663866B1783A90900130B1B0075
:102A900093040B00638C090483A90900130B1B002A
:102AA0006386090483A90900138B24006380090449
:102AB00083A90900138B3400638A090283A90900E2
:102AC000138B44006384090283A90900138B54000B
:102AD000638E090083A90900138B640063880900D1
:102AE00083A90900138B7400E39E09F8130D0C00F1
:102AF00013860B00138C0900630C0B06630E060A89
:102B0000630C0C0A83284D00832F4C008396080029
:102B100083952F000395280013990601935009010E
:102B200093F706F013D7800033E3E70023906800A3
:102B300083920F00B303B54013980201135A0801A2
:102B400093FA02F0935D8A00B3ECBA0123909F01DF
:102B50006354700693040C00032C0C001306F6FF5C
:102B600063840E0223A09E00938E0400E3180BF8EA
:102B7000630C0604630C0C0493040C001306F6FFAC
:102B8000032C0C00E3900EFE13840400938E0400CB
:102B90006FF0DFFD032E4400832F4101034F0E0031
:102BA000E30EFFDF03240400E31604FE03240C00FD
:102BB000E31604DE6FF0DFE093040D00130BFBFF60
:102BC000032D0D006FF0DFF9E3120CE223A00E00DD
:102BD0006308EE09939B1B00630A0436130C040080
:102BE000130E0000930E0000130400006FF01FE0AE
:102BF000130D0C00138B0B0013860B00138C0900B4
:102C00006FF09FEF630C0C4203274C0093090C00FC
:102C100083400700639C16006FF01FC883A2490021
:102C20000324410183C30200E38883C683A909000A
:102C3000E39609FE6FF05FC683A44B00938E1E00DF
:102C400013980E0103891400935E0801937919000B
:102C5000330A3301931A0A0113D30A016FF09FCA92
:102C6000032C040063000C02832E44008325C10161
:102C700003950E00EF304070032C0C00232EA100B2
:102C8000E3140CFE8320C105032481050325C10143
:102C900083244105032901058329C104032A8104F2
:102CA000832A4104032B0104832BC103032C8103DA
:102CB000832C4103032D0103832DC102130101065F
:102CC000678000001305100093058D022322A100E8
:102CD000232CB100630C0C26930400002324010074
:102CE00023280100930910000327010183274100D5
:102CF000930D0C001303170093F077002328610055
:102D0000930C00006388000893021000638A500649
:102D100093032000638070061304300063868004F0
:102D2000930E4000638CD0031308500063820003AD
:102D30001309600063882001832D0C00930C1000A0
:102D4000638C0D0A83AD0D00938C1C0063860D0A05
:102D500083AD0D00938C1C0063800D0A83AD0D00C4
:102D6000938C1C00638A0D0883AD0D00938C1C00AE
:102D700063840D0883AD0D00938C1C00638E0D06DB
:102D800083AD0D00938C1C0063880D06032A41005F
:102D900063844C0783AD0D00938C1C00938A0C0058
:102DA000638C0D0483AD0D00938C1C0063860D04B1
:102DB00083AD0D00938C2A0063800D0483AD0D005C
:102DC000938C3A00638A0D0283AD0D00938C4A0008
:102DD00063840D0283AD0D00938C5A00638E0D0049
:102DE00083AD0D00938C6A0063880D0083AD0D00E8
:102DF000938C7A00E39C0DF8832B410063880C0EC2
:102E000063880B1063860D10032B4C0003A94D0043
:102E1000031A0B00137E0A08937AFA0763180E044C
:102E2000135F3A409378FF00939F480093767A00AF
:102E3000B3E5F80183578D0363820614638C361162
:102E400093120A0113D50201930A0A009385070021
:102E5000EF20905993FAFA0793730AF033E87A0057
:102E6000231CAD02136608082310CB00031B0900C6
:102E7000937E0B081373FB0763980E0413543B40B7
:102E8000137AF400131E4A00137F7B00B365CA0156
:102E900083578D03630A0F1463043F1313150B014B
:102EA0001355050113040B0093850700EF20D05341
:102EB0001373F40793720BF0B3635300231CAD023A
:102EC00013E803082310090133896A40635220057F
:102ED00093800D0083AD0D00938BFBFF6384040290
:102EE00023A0140093840000E39C0CF0638A0B027F
:102EF000638C0D0293800D00938BFBFF83AD0D005F
:102F0000E39004FE23241100938400006FF0DFFDA2
:102F100093000C00938CFCFF032C0C006FF01FFC43
:102F2000138C0D00E3920DDC23A004008324010127
:102F3000130C10006380841183294100032C81004D
:102F4000139B190023226101E3180CD823200000F1
:102F5000730010000325810113860700EF20C03D98
:102F60000357CD0313130501935A03416316070456
:102F700083578D03231EAD026FF05FED1305200212
:102F80009380050063D4A5009300200283254D01A2
:102F900083162D0003160D0003258D0113F7F00F86
:102FA000EF2010218355ED039317050193DA0741B4
:102FB00063940500231FAD0283578D036FF01FE953
:102FC0000325810113860700EF2000378357CD03C7
:102FD00013170501135407416396070483578D03A4
:102FE000231EAD026FF05FEC93082002938F050063
:102FF00063D41501930F200283162D0083254D0104
:1030000003160D0003258D0113F7FF0FEF20501A53
:103010008356ED039315050113D40541639406000F
:10302000231FAD0283578D036FF01FE8232E01008D
:103030006FF05F91032C81006FF05F918327000098
:1030400073001000930740013355F5023788FFFFE6
:1030500023A00500930608081387050193878500C0
:103060001305E5FF93183500B388150123A2150158
:10307000131E2500239108002390D800338EC80129
:1030800013834800637217539386880063FEC6510A
:1030900023A4050023A0F50023A665009342F8FFB2
:1030A0009303F0FF239278002393580063060528CA
:1030B000131F0601B78EFFFF13733500135F0F0157
:1030C0001308000093CEFEFF63060310930F100059
:1030D0006304F30B930220006304530493038700FB
:1030E00063FE130313834600637AC30313183F0080
:1030F0002320F7009377880723A0E500939F87009C
:103100002322D700B3E2FF00239056002391D6017B
:1031100093070700930603001387030013081000AA
:103120009302870063F812059383460063F4C30596
:1031300013130801935F030133C3EF01131333002B
:103140001373830793FF7F002320F700B367F30116
:1031500023A0E500139387002322D700B36FF30069
:103160002390F6012391D60193070700938603006D
:1031700013870200130818009302870063F81205F2
:103180009383460063F4C30513130801935F03019F
:1031900033C3EF01131333001373830793FF7F00CF
:1031A0002320F700B367F30123A0E5001393870002
:1031B0002322D700B36FF3002390F6012391D601A9
:1031C0009307070093860300138702001308180073
:1031D000630405179302870063F812059383460082
:1031E00063F4C30513130801935F030133C3EF01B5
:1031F000131333001373830793FF7F002320F7001B
:10320000B367F30123A0E500139387002322D700BF
:10321000B36FF3002390F6012391D60193070700C3
:103220009386030013870200930287001308180097
:1032300063F812059383460063F4C3051313080172
:10324000935F030133C3EF01131333001373830739
:1032500093FF7F002320F700B367F30123A0E5006D
:10326000139387002322D700B36FF3002390F60156
:103270002391D6019307070093860300138702006A
:10328000930287001303180063F812059383460026
:1032900063F4C305931F030193DF0F0133C3EF01F1
:1032A000131333001373830793FF7F002320F7006A
:1032B000B367F30123A0E500139387002322D7000F
:1032C000B36FF3002390F6012391D6019307070013
:1032D00093860300138702009302870013032800DC
:1032E00063F812059383460063F4C305931F03013B
:1032F00093DF0F0133C3EF011313330013738307FD
:1033000093FF7F002320F700B367F30123A0E500BC
:10331000139387002322D700B36FF3002390F601A5
:103320002391D601930707009386030013870200B9
:1033300013083800E31005EB83A80700638608062E
:10334000130E5000335FC50337450000930610008D
:10335000930EF5FF6F00800183A707002391D20031
:103360009386160083A207006380020483A24700AD
:10337000E3E4E6FF9393060113D30301930F1300D5
:1033800013978F0013780770B348C30083A7070013
:10339000336E18013375DE012391A20083A207006A
:1033A00093861600E39402FC1308100093080000B3
:1033B00013050000930F000093021000137F7800A4
:1033C000938F1F00938705001307000063060F0803
:1033D00013061000630ACF06930E20006300DF0778
:1033E0009303300063067F0413034000630C6F02F5
:1033F000130E50006302CF03930660006308DF00E2
:1034000083A7050013071000638A070A83A7070034
:10341000130717006384070A83A707001307170021
:10342000638E070883A70700130717006388070840
:1034300083A70700130717006382070883A7070005
:1034400013071700638C070683A7070013071700ED
:10345000638607066304070783A70700130717009F
:10346000130F0700638C070483A7070013071700D7
:103470006386070483A7070013072F0063800704F0
:1034800083A7070013073F00638A070283A707008B
:1034900013074F006384070283A7070013075F0029
:1034A000638E070083A7070013076F006388070078
:1034B00083A7070013077F00E39E07F893860500A4
:1034C0001306080093850700630C0706630C0608C3
:1034D000638A050883AE460003AE450083970E005D
:1034E00083132E0003932E00139F0701135F0F0118
:1034F000135F8F0093F707F0B3E7E7012390FE0017
:10350000031F0E0033037340931E0F0193D30E016C
:1035100093770FF013DF8300B3EEE7012310DE0192
:1035200063526004138E050083A505001306F6FFA1
:103530006384080223A0C80193080E00E31807F86B
:10354000630A0602638A0502138E05001306F6FF5E
:1035500083A50500E39008FE13050E0093080E00F6
:103560006FF0DFFD138E06001307F7FF83A606003A
:103570006FF01FFCE39405E423A0080063805F0262
:1035800013181800630E050093050500930F000043
:1035900093080000130500006FF05FE267800000F1
:1035A0002320000073001000138707009306030018
:1035B000930700006FF09FAF130101FE2326310136
:1035C0008329C501232E1100232C8100232A910079
:1035D000232821012324410123225101232C050208
:1035E000232E05026382091C93F73900130405009A
:1035F00093040000638E070A13071000638CE7062C
:1036000093002000638C170293051000EFF0CF9E0B
:103610008355840393041000EF20005D231CA40253
:103620009305F0FF13050400EFF00F9D835584030D
:10363000EF20805B231CA402231DA402930510002D
:1036400013050400EFF04F9B83558403EF20C0590E
:10365000231CA4029305F0FF13050400EFF0CF999B
:1036600083558403EF204058231CA4026380041870
:10367000938414009305100013050400EFF0CF9716
:1036800083558403EF204056231CA4029305F0FFCA
:1036900013050400EFF04F9683558403EF20C054C8
:1036A000231CA402638C041293841400638E990E6D
:1036B0009305100013050400EFF00F948355840365
:1036C00013891400EF204052231CA4029305F0FF3D
:1036D00013050400EFF04F9283558403EF20C05090
:1036E00093020500231C54029305100013050400E7
:1036F00063940400231D5402EFF00F90835584035C
:10370000EF20804E231CA4029305F0FF1305040054
:10371000EFF08F8E83558403EF20004D231CA4020D
:1037200063140900231DA40293051000130504006F
:10373000EFF08F8C83558403930A1900130A290034
:10374000EF20804A231CA4029305F0FF1305040018
:10375000EFF08F8A8355840393043900EF20C0482B
:1037600013030500231C64029305100013050400D5
:1037700063940A00231D6402EFF00F8883558403CD
:10378000EF208046231CA4029305F0FF13050400DC
:10379000EFF08F8683558403EF200045231CA4029D
:1037A00063080A02E39699F08320C1010324810192
:1037B00083244101032901018329C100032A8100D7
:1037C000832A4100130500001301010267800000F5
:1037D000231DA402E39E99EC6FF01FFD231DA4029C
:1037E00093841400E39699EC6FF01FFC231DA40250
:1037F000938414006FF01FE8130101FD232681025A
:10380000232491022322210323203103232E41016B
:10381000232C5101232A61012328710123268101D0
:1038200023249101130805006314060013061000F9
:103830009385350013F9C5FF1305000063160800D2
:103840006F00C0301305070013071500B307E70228
:1038500093923700E3E802FF3303A502130A050041
:1038600013141300B3098900630C0528B70E010077
:1038700093141500938F09009303000013081000A0
:10388000330F3941938EFEFF330606039318080168
:1038900093DA0801930BF5FF13FC3B00330BFF0198
:1038A000130E100093852F0013081800935CF64147
:1038B00013D70C01B307E600B3F2D7013386E24019
:1038C0003383CA009318030193DB0801B38A5B01B9
:1038D00023907F0193FCFA0F23109B01637CAE20A1
:1038E000630C0C0E6302CC0B130B200063086C05F9
:1038F00033060603131E0801135C0E01B302BF005A
:10390000130E2000130818001357F64193570701B0
:103910003303F600B378D3013386F840B30BCC0001
:10392000939A0B0193DC0A01338B8C012390950150
:103930009375FB0F2390B20093854F003306060367
:10394000131C080193520C013303BF00130E1E0019
:1039500013081800938525001357F6419357070164
:10396000B308F600B3FBD8013386FB40B38AC2002C
:10397000939C0A0113DB0C01330C5B00239F65FF52
:103980009372FC0F23105300330606031313080130
:1039900093570301B308BF0093852500130E1E0043
:1039A000130818001357F641935B0701B30A760119
:1039B000B3FCDA0133867C41338BC700131C0B0147
:1039C00093520C013383F200239F55FE9377F30F3C
:1039D0002390F8006370AE12330606031307280025
:1039E000931C070113D30C0193071800939B070145
:1039F0009318080193D20801330CBF0013DB0B01AD
:103A0000935CF64193DC0C01330696013376D601C4
:103A1000B30C9641B387FC0233869201931C0601D6
:103A200013D60C01B30256002390C50093FCF20F8D
:103A300023109C01930B0C0013060C0093020C0046
:103A400013DCF741935C0C01B387970133FCD7017A
:103A5000B30C9C413387EC02B3079B01139C070115
:103A6000935C0C01338B6C01239195019377FB0FD1
:103A70002391FB00930A380093980A01935BF74166
:103A800013DC0B0133078701B37CD701338B8C41E7
:103A9000B30A5B03B3076301939B070113DC0B01BC
:103AA00033036C0093858500239E85FF1377F30F06
:103AB0002312E60093D8080113D6FA41935C06015D
:103AC000338B9A01B37ADB0133869A41B387C800FE
:103AD000939B070113DC0B01B3081C01239F85FF97
:103AE00013F3F80F130E4E002393620013084800DF
:103AF000E364AEEE93831300B38F9F00E3E6A3D895
:103B000033848900930434000324C10293FFC4FF6B
:103B100023A2260123A4360123A0460123A6F601F1
:103B2000832481020329410283290102032AC1015E
:103B3000832A8101032B4101832B0101032CC10046
:103B4000832C810013010103678000009309290081
:103B5000130AF0FF1305F0FF130420006FF01FD1CC
:103B600063060526130101FC23207103930B050056
:103B70001318150093972B0023226103232E810134
:103B8000232C9101232AA101232E8102232C9102AF
:103B9000232A21032328310323264103232451030D
:103BA0002328B101138D060013050600B303060197
:103BB0002326F100138C0500338B0601930C0000C3
:103BC00013060D0093020C003387A3401303E7FF95
:103BD000135413009304140013F9740093050600A2
:103BE0009306050093070000630E090C930810006C
:103BF000630C190B93092000630C3909130A300078
:103C0000630C4907930A4000630C5905930D50005B
:103C1000630CB903130E6000630CC901831E050019
:103C2000031F060093062500B3050601B387EE03C4
:103C3000839F06000397050093862600B385050140
:103C40003383EF02B3876700039406008394050073
:103C500093862600B385050133099402B3872701B3
:103C6000839906008398050093862600B385050195
:103C7000338A1903B3874701839A0600839D0500A1
:103C800093862600B3850501338EBA03B387C70137
:103C9000839E0600039F050093862600B3850501D9
:103CA000B38FEE03B387F701039706000393050074
:103CB00093862600B385050133046702B387870026
:103CC0006386D30AB384050183990600039A05002D
:103CD000039F0400839A260033874903B3880401B5
:103CE000338E0801839D080003994600B30F0E012F
:103CF000031A0E000394660033830F01839E86002F
:103D0000B38AEA0383990F00B3080301039EA60058
:103D100083140300B38508010393C600839F080042
:103D2000039F05008398E6003309B903B387E700D2
:103D3000B38D570193860601B3850501330444030F
:103D400033872D01338A3E03B30E8700B3099E02E9
:103D5000338E4E01B304F30333033E01B38AE80309
:103D6000B30F9300B3875F01E39ED3F423A0F20067
:103D70001306260093824200E318CBE40326C10019
:103D8000938C1C0033050501B3830301330CCC0075
:103D9000E3989BE30324C1038324810303294103A4
:103DA00083290103032AC102832A8102032B4102D2
:103DB000832B0102032CC101832C8101032D4101BE
:103DC000832D01011301010467800000678000005A
:103DD000630A051E130101FE131E1500232C91001A
:103DE00093840600232E8100232A210123283101F8
:103DF000232641012324510123226101930F060050
:103E0000330FC6011319250093860500B383C4013F
:103E100013040000938E040093820600B307FF4151
:103E20001383E7FF935513001386150013783600AC
:103E300013830E0013860F0093090000630C08081B
:103E4000130710006300E8069308200063061803B8
:103E500083990F00039A0E0013862F003383CE013F
:103E6000B38A490313DB2A4093D75A409375FB006A
:103E700013F8F707B3890503831806000317030037
:103E8000130626003303C301338AE802935A2A40FB
:103E9000135B5A4093F5FA009377FB073388F502DA
:103EA000B3890901831806000317030013062600CF
:103EB0003303C301338AE802935A2A40135B5A4002
:103EC00093F5FA009377FB073388F502B38909016C
:103ED0006306CF0A3307C301031A0600831A0300DF
:103EE000330BC70183170700831826003303CB0168
:103EF00003184600031B0B0033075A0383156600A3
:103F0000831A0300130686003303C301B388F80243
:103F1000135A57409357274013F7F7009377FA0740
:103F20003308680313DB284093D85840137AFB000A
:103F300013FBF807B3855503935A2840135858408C
:103F400093FAFA001378F807B307F70293D85540AD
:103F500013D725401377F70093F5F807330A6A0360
:103F6000B389F900338B0A03B38A49013308B702D6
:103F7000B3876A01B3890701E31ECFF423A032019E
:103F8000938E2E0093824200E39AD3E91304140027
:103F9000B38FCF01330FCF01B3862601E31C85E633
:103FA0000324C101832481010329410183290101E3
:103FB000032AC100832A8100032B4100130101025F
:103FC0006780000067800000130101FA232C810440
:103FD0002320610537F4FFFF232E1104232A9104C7
:103FE00023282105232631052324410523225105B9
:103FF000232E7103232C8103232A91032328A10359
:104000002326B1032326B1002328C100138B060009
:1040100033648700631405006F10802B131D150097
:10402000330FA04093090600931007013306A60141
:10403000931C1F00130E050013D900019306060000
:1040400013080000131F2F003385DC00B385A64042
:104050009382E5FF13D312009303130093FA7300C6
:104060009307050063840A0A9308100063861A09FF
:10407000930B2000638A7A07130C3000638E8A0545
:10408000930D40006382BA05930E50006386DA03F5
:10409000930F6000638AFA0183540500930725009B
:1040A000330A99002310450183D007009387270026
:1040B000B3051900239FB7FE83D20700938727001B
:1040C00033035900239F67FE83D30700938727009C
:1040D000B30A7900239F57FF83D8070093872700EF
:1040E000B30B1901239F77FF03DC07009387270099
:1040F000B30D8901239FB7FF83DE07009387270055
:10410000B30FD901239FF7FF6386D70683D4070037
:1041100003DA270083D2470083DA670083DB870056
:1041200003D3A70083D8C70083D5E700B300990065
:10413000B3034901330C5900B30D5901B30E790192
:10414000B30F6900B3041901330AB90023901700B3
:1041500023917700239287012393B7012394D701FA
:104160002395F7012396970023974701938707012B
:10417000E39ED7F893041800B306E54163069E005A
:10418000138804006FF05FEC8323C100330C904070
:10419000939A2400138A030093000000931B2C00C1
:1041A00033059601B307A640138EE7FF135F1E0089
:1041B00093021F0013F37200938603009307050018
:1041C0006302030C930810006302130B9305200095
:1041D0006304B308930D30006306B307930E4000E9
:1041E0006308D305930F5000630AF303130E6000B6
:1041F000630CC301031F050093072500938643004A
:10420000B302EF0223A053000393070093864600F6
:1042100093872700B308E30223AE16FF83950700B8
:104220009386460093872700B38DE50223AEB6FF41
:10423000839E07009386460093872700B38FEE0284
:1042400023AEF6FF039E0700938646009387270060
:10425000330FEE0223AEE6FF8392070093864600FB
:10426000938727003383E20223AE66FE839807001C
:104270009386460093872700B385E80223AEB6FEF7
:104280006308F606839D0700839F2700039F47006E
:10429000839E6700039E87000393A7008398C7004F
:1042A0008395E700B382ED029386060293870701A8
:1042B000B38DEF0223A056FEB30FEF0223A2B6FF89
:1042C000338FEE0223A4F6FFB30EEE0223A6E6FF21
:1042D000330EE30223A8D6FF3383E80223AAC6FFE6
:1042E000B388E50223AC66FE23AE16FFE31CF6F8A6
:1042F00093871000B3835301330675416386000131
:10430000938007006FF0DFE90327C1001305000069
:104310001303000033075701930C070093050000B7
:1043200013060000131C3C00B3007701B3061740CE
:104330009382C6FF93DD2200938F1D0013FF7F0041
:104340009387000063040F28930E1000630ADF13A5
:10435000130E20006300CF119308300063061F0D79
:1043600093034000630C7F08930650006302DF064E
:104370009302600063085F0283AD0000131505011E
:1043800093570501B385B501E34AB4723323B301F2
:10439000B38F6700139F0F0113550F4193874000A0
:1043A00013830D0003AE07009318050193D3080192
:1043B000B385C501634EB43AB326C301B382D300BB
:1043C000939D020113D50D419387470013030E00FF
:1043D00083AF0700131F0501935E0F01B385F5013D
:1043E000634EB436332EF301B388CE0193930801A4
:1043F00013D503419387470013830F0083A207005F
:10440000931D050113D50D01B3855500634EB432DC
:1044100033235300B30F6500139F0F0113550F4152
:10442000938747001383020083A8070093130501B5
:1044300093D60301B3851501634EB42EB322130145
:10444000B38D560013950D01135505419387470011
:104450001383080083AF0700131F0501935E0F014C
:10446000B385F501634EB42A332EF301B388CE0130
:104470009393080113D503419387470013830F00DB
:1044800083AD070013150501935F0501B385B501E1
:10449000634EB4263323B301338F6F00931E0F0195
:1044A00013D50E419387470013830D006310F71255
:1044B0006F00802403AE47001383A600931E030100
:1044C00013DF0E419302000093150F01338FC201D9
:1044D0009387470093D305016358E413938DA3009A
:1044E00083AE470013950D01935F0541130F000044
:1044F00013930F01B30FDF01935303016348F413C8
:10450000332EDE01B388C30103AF87009396080101
:1045100093DD064113950D01B385EF01135305019A
:104520006348B412B3AEEE01B303D30183ADC70049
:10453000139E030193520E41939F0201B386B5016E
:1045400013D50F016348D412332FBF013303E501A4
:1045500083A20701931E030193D80E41939508018E
:10456000338E560093DF05016348C413B3AD5D007D
:104570003385BF0183A84701131F050193530F41E2
:1045800093960301B3031E0193DF0601634874127F
:10459000B3A21201B38D5F0003A3870113950D0130
:1045A000935E0541139E0E01B385630093560E0181
:1045B0006348B412B3A86800B38F160193920F0139
:1045C0009387C70113D502416308F71283A8070038
:1045D0009313050193D60301B3821501E34C54EC08
:1045E000B32D130103AE47003385B601931F0501B8
:1045F00013DF0F4193150F01338FC20193874700DB
:1046000093D30501E34CE4EDB3A8C801B3861301CD
:1046100083AE47009392060193DF024113930F018B
:10462000B30FDF0193530301E35CF4ED9385A30023
:1046300003AF87009392050193DD0241930F0000C1
:1046400013950D01B385EF0113530501E35CB4EC41
:104650009308A30083ADC7009396080193D2064147
:1046600093050000939F0201B386B50113D50F0196
:10467000E35CD4EC9303A50083A20701139E03011E
:1046800093580E419306000093950801338E56000F
:1046900093DF0501E35CC4ED1383AF0083A84701FA
:1046A000931E030193D30E41130E00009396030152
:1046B000B3031E0193DF0601E35C74EC9385AF0046
:1046C00003A38701139F0501935E0F41930300002D
:1046D000139E0E01B385630093560E01E35CB4ECA8
:1046E000938DA60013950D019387C70113550541BE
:1046F00093050000E31CF7EC130F1600338780418D
:104700006302060913060F006FF01FC29385AF0006
:10471000139E050113550E41930500006FF09FD8BD
:104720009386AE009392060113D5024193050000D3
:104730006FF09FD49385A600139305011355034191
:10474000930500006FF09FD0930EA500139E0E01FD
:1047500013550E41930500006FF09FCC9385AE007A
:104760009396050113D50641930500006FF09FC88D
:104770001385A3001313050113550341930500008E
:104780006FF09FC493050000EF10103F832F0101CD
:104790008325C100232AA100B302AB01232C810091
:1047A000232E5101938D0C00338662419300E6FF66
:1047B00093DE100093831E0013F3730093060B0027
:1047C00013860F0093070000630E030C130E1000F6
:1047D000630CC30B93082000630C1309130530000E
:1047E000630CA30613044000630C830413085000F9
:1047F000630C0303930A6000630C5301839B0F0057
:1048000083170B0013862F0093062B00B387FB0240
:10481000031C0600839C06001306260093862600D0
:10482000330F9C03B387E70103170600839006004C
:104830001306260093862600B30E1702B387D7010E
:1048400083130600039306001306260093862600B2
:10485000338E6302B387C7018318060003950600F1
:1048600013062600938626003384A802B3878700A8
:1048700003180600839A0600130626009386260076
:10488000B30B5803B3877701031C0600839C060013
:104890009386260013062600330F9C03B387E70197
:1048A0006388D208831E060003970600839A2600B9
:1048B000831C26003387EE0283104600039C4600CB
:1048C000031E6600839B6600031386000394860024
:1048D0008318A6008393A6000318C600B38C5C035C
:1048E000B38AE700039FC6000315E600839EE60037
:1048F0009386060113060601B3878003B3809A01ED
:10490000330C7E03338EF000B30B830233078E012A
:104910003383780233047701B308E803B3036400F8
:104920003308D503338F1301B3070F01E39CD2F68D
:1049300023A0F50093854500B38FAF01E396BDE654
:1049400003248101832AC1018327C10013050000CC
:1049500093000000930500001307000083A80700E0
:104960009382F4FF931D0501B385150193FF320077
:1049700013D60D01E350B4089305A600939C0501DE
:1049800013D50C419305000013081000138647004F
:10499000138C0800637C981C63880F1263840F07D4
:1049A0009300200063881F02032C0600131E0501DC
:1049B000935B0E01B3858501E348B40E33A38801F0
:1049C000B3886B009393080113D5034113081800B3
:1049D00013064600832F0600931D050113D50D0114
:1049E000B385F501E340B406B326FC01B30ED50050
:1049F000939C0E0113D50C411308180013064600B2
:104A0000138C0F0083280600131E0501935B0E0113
:104A1000B3851501E34EB40033231C01B3836B004F
:104A2000139F030113550F41130818001306460086
:104A3000636C98086F008013832B4600138CA600CC
:104A4000131E0C0193500E41930E000013930001AE
:104A5000B3887E0113081800130646009353030120
:104A60006354140B938DA3008326460013950D0108
:104A7000935E054193080000939C0E01338FD8008C
:104A800093D00C016344E40B33ACDB00338E800124
:104A900083288600931B0E0193D30B41939203014D
:104AA000B3051F0193DF02016344B40AB3AD1601DD
:104AB0003385BF01931E05011308380013D50E413D
:104AC0001306C6006374980A832D060013150501AA
:104AD00093560501B38EB501E340D4F7B3A8B801EE
:104AE000B38C1601832B460093950C0193D005419E
:104AF00013930001B3887E011308180013064600C3
:104B000093530301E34014F733AF7D01B382E30114
:104B100083264600939F020193DE0F41939C0E0172
:104B2000338FD80093D00C01E350E4F79385A000B5
:104B3000832886001393050193530341130F00004C
:104B400093920301B3051F0193DF0201E350B4F612
:104B50009386AF00939C06011308380013D50C41CF
:104B6000930500001306C600E36098F613071700CC
:104B7000B387570193800800E36297DE83254101E4
:104B8000EF10807F032CC10003260101930B050069
:104B900093050C001385040093060B00EFE05FFC07
:104BA00013050000130E000093050000930300009E
:104BB00083280C001383F4FF93120501B3851501BC
:104BC000137F330093DF02016352B4609386AF001A
:104BD000939C060113D50C419305000013081000A7
:104BE00013064C0093800800637E981C630A0F1222
:104BF00063060F0713072000630AEF0283270600EE
:104C00009310050113DE0001B385F5006344B46819
:104C1000B3A8F80033031E01131F030113550F41FE
:104C2000130818001306460093800700832F060020
:104C3000931D050113D50D01B385F5016348B462D9
:104C4000B3AEF001B306D501939C060113D50C4118
:104C5000130818001306460093800F0083280600EF
:104C6000131E050113530E01B3851501634EB4588D
:104C700033AF1001B302E301939F020113D50F413B
:104C80001308180013064600636C98086F00801321
:104C9000032F4600138EA60013130E0193500341F9
:104CA000930C000093920001B388EC0113081800E4
:104CB0001306460093DF02016354140B9385AF0083
:104CC000032746009396050193DC064193080000F4
:104CD00093970C01B38EE80093D007016344D40B83
:104CE000332EEF003383C00183288600131F030196
:104CF000935D0F4113950D01B3851E01935C050172
:104D00006344B40AB32617013387DC009317070105
:104D10001308380013D507411306C6006374980AB8
:104D2000832E06001315050193560501B38CD5019A
:104D3000E34094F7B3A8D80133871601032F460048
:104D40009317070193D0074193920001B388EC01B8
:104D5000130818001306460093DF0201E34014F71E
:104D6000B3ADEE01B38EBF010327460013950E01CC
:104D7000935C054193970C01B38EE80093D0070133
:104D8000E350D4F79382A00083288600939F02010A
:104D900093DD0F41930E000013950D01B3851E01A5
:104DA000935C0501E350B4F69385AC009390050144
:104DB0001308380013D50041930500001306C60000
:104DC000E36098F693831300330C5C01138E0800A4
:104DD000E3E093DE93850B00EF10005A03260101F8
:104DE0008325C10093060B00930B05001385040077
:104DF000EFE01FFE13050000130B0000930E0000F0
:104E0000130C000083260A009383F4FF131305019B
:104E1000B38EDE0013FE3300135F03016352D43DF3
:104E2000930EAF0093980E0113D50841930E000026
:104E30009305100013064A009388060063FC951C36
:104E400063080E126304BE06930C200063089E03E1
:104E5000832806001315050113570501B38E1E01A3
:104E60006340D443B3A61601B307D700939007015C
:104E700013D50041938515001306460083230600D1
:104E8000131E050113530E01B38E7E006346D43DFD
:104E900033AF7800B302E301939F020113D50F41B2
:104EA00093851500130646009388030083260600A9
:104EB000931C050113D50C01B38EDE006340D4377B
:104EC00033A7D800B307E5009390070113D500413D
:104ED000938515001306460063EC95086F00801358
:104EE000930EA300832C460093980E0193DD084196
:104EF000130F00001387150033039F0193950D01D5
:104F00001306460013D505016354640A1308A5006F
:104F1000032F46009313080113DE0341130300001F
:104F200093160E01B307E30193D206016344F40A1A
:104F3000B3AFEC01B38DF20183268600939E0D0181
:104F400093D50E4113950501B38ED70093500501FB
:104F50006344D40B332BDF00B3836001139E030142
:104F60009305370013550E411306C60063F4950AE6
:104F700083230600131E050113530E01338F7E0099
:104F8000E340E4F7B3A67600B302D300832C4600D7
:104F9000939F020193DD0F411387150033039F0197
:104FA00093950D011306460013D50501E34064F601
:104FB000B3A79301B300F500032F4600139B000134
:104FC000135E0B4193160E01B307E30193D2060162
:104FD000E350F4F69388A20083268600939C080190
:104FE00093D50C419307000013950501B38ED700AC
:104FF00093500501E350D4F71388A0001313080160
:105000009305370013550341930E00001306C600A5
:10501000E3E095F6130C1C00330A5A01138B0600CB
:10502000E3629CDE93850B00EF100035130A00004D
:1050300003D40900938AF4FF13071000B30B244133
:105040002390790113FC7A009387290063789712E3
:1050500063000C0C6302EC0A130F20006304EC09DC
:105060009302300063065C06930F40006308FC0562
:10507000930D5000630ABC0393086000630C1C018D
:1050800083DC070013072000B3862C412390D70050
:105090009387490083D007001307170093872700E1
:1050A000338B2041239F67FF83D30700130717002B
:1050B00093872700338E2341239FC7FF03D8070020
:1050C000130717009387270033032841239F67FEA8
:1050D00083DE07001307170093872700B3852E414F
:1050E000239FB7FE03D607001307170093872700F7
:1050F00033042641239F87FE83DA07009387270026
:1051000013071700B38B2A41239F77FF6378970615
:1051100003DC070083D2270083DF470083DD6700BD
:1051200083DC870083D0A70003DBC70083D6E700BA
:10513000330F2C41B3832241338E2F41B3882D414D
:1051400033882C4133832041B30E2B41B385264154
:105150002390E701239177002392C701239317013E
:1051600023940701239567002396D7012397B7005F
:105170001307870093870701E36C97F8130A1A0057
:10518000B389A901E3669AEA8320C1050324810556
:105190009314050113D50441032901058324410516
:1051A0008329C104032A8104832A4104032B0104B7
:1051B000832BC103032C8103832C4103032D0103A3
:1051C000832DC1021301010667800000B32D1E016B
:1051D0003385BF01931E050113D50E416FF01FA04B
:1051E000B322DB00B30F5F00939D0F0113D50D4178
:1051F0006FF01FC4B3A610013305D600931E05013E
:1052000013D50E416FF04FF89305A300939D050150
:1052100013D50D41930500006FF09FA61308A5005C
:10522000131B080113550B41930E00006FF05FCA6A
:105230009382AB00939F020113D50F4193050000A9
:105240006FF08FFE9305A5009390050113D50041E3
:10525000930500006FF04FFA930DA300939E0D018C
:1052600013D50E41930E00006FF09FC31307A500E6
:105270009317070113D50741930500006FF05F9D59
:105280001308A700131B080113550B41930E0000D0
:105290006FF05FBE9305AE009392050113D50241F6
:1052A000930500006FF0DF97138FAB0093120F018F
:1052B00013D50241930500006FF04FF19385A700CD
:1052C000939E050113D50E41930500006FF00F8DDD
:1052D00093050000EF10400A930505001305000038
:1052E000EF108009032901018324C10093060B00FC
:1052F00013060900930905009385040013050000B7
:10530000EFE01F869385090013050000EF10C0062B
:10531000130A05009385040093060B001306090089
:1053200013050000EFE0DFAA93050A001305000053
:10533000EF1080046FF05FE5130101FF232481006B
:1053400013870500130406008325C5008326850006
:10535000032645000325050023261100EFE0DFC6E4
:1053600093050400032481008320C100130101017F
:105370006F10800093050500138501836FB01FAC8B
:10538000130101FF23261100EFB05FC88320C10085
:1053900023A0A18223A2B182130101016780000032
:1053A000130101FF23261100EFB05FC68320C10067
:1053B00023A4A18223A6B18213010101678000000A
:1053C000938281821383018283A502000325030057
:1053D00083A34200032643003385A540B3B6A5004E
:1053E0003388C340B305D84067800000939585019A
:1053F00013558500130101FF33E5A5002326110095
:10540000EF10D021B707001003A6875183A6C7511C
:10541000EF10801FEF1010198320C100130101014C
:1054200067800000130101FFB73500401385018339
:1054300023261100EFB0DF9F8320C100B757000083
:105440009382473723A65180130101016780000032
:105450009307000093060000130101FF93851500D8
:105460003387F600939205012326810023249100BF
:10547000B70F001037030010370F0010B70E0010E1
:10548000370E0010232221019308F5FF9304170023
:1054900093D5020113040000130840009302C002D8
:1054A00093038000938F4F5513030352130F4F53F1
:1054B000938E4E56130E4E5463FE140563980712D6
:1054C00093F475009387D4FF1394070113D9350023
:1054D0009354040113773900636498189397240058
:1054E0003389670003240900931427006700040030
:1054F00033079E000324070093078000938515005F
:105500003387F60013990501930417009355090199
:10551000E3E614FBB307D6003306A60063FEA60835
:10552000B303F64013F473006304040693061000FB
:10553000630AD404130520006302A4041308300096
:10554000630A040393084000630214031309500024
:10555000630A240193056000631EB41023800700D2
:105560009387170023800700938717002380070085
:105570009387170023800700938717002380070075
:105580009387170023800700938717006386C7025D
:1055900023800700A380070023810700A381070061
:1055A00023820700A382070023830700A383070049
:1055B00093878700E39EC7FC0324C10083248100F6
:1055C000032941001301010167800000B3879E0099
:1055D00003A40700930780006FF05FF233099F0078
:1055E00003240900930780006FF05FF10349040072
:1055F000B306D6002380260103491400A3802601A8
:10560000034924002381260103493400A381260194
:10561000638407030349440023822601034954009D
:10562000A382260103496400238326016396770041
:1056300003447400A38386009386040093F47500EA
:105640009387D4FF3307E600139407012300570024
:1056500013D935009354040113773900E37098E8A7
:105660009314270033879F0003240700930740000B
:105670006FF0DFE823800700938717006FF01FEEBD
:105680008327050083C607006388062E1308C0021F
:1056900013871700638E062B83A80500138606FD6B
:1056A0009372F60F1303900093831800636C530AF0
:1056B00023A0750003C3170063040316138E27008D
:1056C000630E0315130603FD130FE002930F900002
:1056D0009308C0021378F60F6306E30363E00F0D2F
:1056E0000343170093031E0013070E006308031201
:1056F000630A132B130603FD138E03001378F60FB2
:10570000E31EE3FD83A70501938E170023A8D501AF
:1057100083431700638203281307C002930E1E0001
:105720006382E322130F5004930F90009308C0028A
:10573000138803FD93F6F30D9372F80F6386E60F5B
:1057400063FA5F1A03A3450113870E009303100049
:105750001306130023AAC5002320E50013850300C8
:1057600067800000130EB002638AC605930ED00254
:105770006386D605130FE002638CE61983AF4500FC
:1057800023A075009303100093861F0023A2D50069
:105790002320E500138503006780000083A6050130
:1057A00013070E00930310009382160023A85500E0
:1057B0002320E500138503006780000023A0750007
:1057C00083C817006380081C13872700638C081B9D
:1057D00003A68500138808FD9372F80F1303900049
:1057E0009303160063705302130EE0026380C81522
:1057F00023A47500930310002320E5001385030004
:105800006780000023A4750003C32700630A030018
:10581000930EC002130E1700E316D3EB13070E000E
:10582000930340006FF0DFF883A74501138717004B
:1058300023AAE500034E1E00630A0E12130FC002D6
:1058400013871E006306EE1383AFC50093085EFD49
:1058500013F8D80F93861F0023A6D500630A08000B
:10586000930310002320E5001385030067800000E8
:1058700083C21E006388020E13872E006384E20F2A
:1058800003A38501138602FD9373F60F130E130015
:105890009307900023ACC501E3E477FC83C22E009C
:1058A000638E020A13863E006388E20B930E90001B
:1058B000130FC002938F02FD93F8FF0F63FE1E01CA
:1058C00003A8450013070600930310009306180071
:1058D00023A2D5006FF0DFED8342170013031600FB
:1058E00013070600638A02066382E20B13060300B5
:1058F0006FF05FFC83431E0013871E00138E0E00A3
:105900006382030463821305930E07006FF05FE266
:1059100023A0750083C3170063880302938E2700BA
:1059200063820303130E07006FF0DFDF23A475000B
:1059300083C32700638A03009307C002930E1700F6
:10594000E392F3FE13870E00930350006FF05FE6BF
:10595000930300006FF0DFE5130706009303700068
:105960006FF01FE5930360006FF09FE413870E0054
:10597000930330006FF0DFE3138707009303000009
:105980006FF01FE3930320006FF09FE21307030003
:10599000930370006FF0DFE113070E0093035000D4
:1059A0006FF01FE113870300930340006FF05FE087
:1059B000130101F8232C8106232821072326310710
:1059C0002324410723206107232E7105232E11066E
:1059D000232A9106232251071384050083C505005D
:1059E000232681002328010223280100232A010203
:1059F000232A0100232C0102232C0100232E010263
:105A0000232E01002320010423200102232201046C
:105A1000232201022324010423240102232601045A
:105A200023260102930B0500130B0600138A0600C0
:105A30001309070093890700638005149304010389
:105A4000930AC1009385040013850A00EFF05FC339
:105A50001315250093070105B382A7000327C10092
:105A600003A302FC834307001306130023A0C2FC18
:105A7000E39A03FC23268100B30B740183450400E1
:105A800063747411930804009306C0026F008000D1
:105A900083C50800B3C065016384D5002380180066
:105AA0000328C100B308280123261101E3E278FF8F
:105AB000034E040023268100930AC100630E0E02E8
:105AC0009385040013850A00EFF09FBB931E250009
:105AD000130F0105B30FDF01032BC10083A50FFCDA
:105AE00003450B009387150023A0FFFCE31A05FC78
:105AF0002326810063747403930AC0028342040066
:105B000033C3420163845201230064000324C100B3
:105B10003304240123268100E36274FF930B010107
:105B2000138B040003A50B0093850900938B4B0096
:105B3000EF0080339305050003250B00130B4B008A
:105B4000EF00803293090500E39E9BFC8320C10790
:105B50000324810783244107032901078329C10600
:105B6000032A8106832A4106032B0106832BC105E4
:105B70001301010867800000B30BA4009304010324
:105B8000E36274F16FF09FF9E39C05F26FF01FF987
:105B90009307500063E6A704B70200101315250011
:105BA00013834262B303650083A503006780050089
:105BB00003A581816780000003A501816780000043
:105BC00003A541816780000037070010032507788F
:105BD00067800000B706001003A5467867800000C4
:105BE000130500006780000033C6A5009376F50F0B
:105BF0009372160013D7160013D81500638C020099
:105C000037A3FFFF93031300B34778009395070171
:105C100013D80501B348E80013FE180093DE2600F0
:105C200013531800630C0E0037AFFFFF930F1F00D4
:105C30003346F3019312060113D302013347D30114
:105C40009373170093D53600935E1300638C0300A3
:105C500037A8FFFF93081800B3C71E01139E070162
:105C6000935E0E0133CFBE00937F1F0093D2460098
:105C700093D51E00638C0F0037A6FFFF1303160099
:105C800033C765009313070193D5030133C855004B
:105C90009378180013DE560093D21500638C080029
:105CA000B7AEFFFF138F1E00B3C7E201939F07013A
:105CB00093D20F0133C6C2011373160013D76600C7
:105CC00013DE1200630C0300B7A3FFFF93851300DC
:105CD0003348BE009318080113DE0801B34EEE00EE
:105CE00013FF1E0093D6760013531E00630C0F00A3
:105CF000B7AFFFFF93821F00B3475300139607010E
:105D00001353060113771300135E1300630CD700BF
:105D1000B7A3FFFF938513003348BE009318080113
:105D200013DE080113558500B34EC501137FF50F2F
:105D300093FF1E0093561F0013571E00638C0F0025
:105D4000B7A2FFFF938712003346F7001313060133
:105D500013570301B3C3E60093F5130013582F0044
:105D6000935F1700638C0500B7A8FFFF138E180020
:105D700033C5CF01931E050193DF0E01B3C60F019A
:105D800093F2160013563F0093D51F00638C020058
:105D9000B7A7FFFF1383170033C7650093130701ED
:105DA00093D5030133C8C50093781800135E4F00E4
:105DB00093D21500638C0800B7AEFFFF938F1E00CF
:105DC00033C5F2019316050193D2060133C6C20111
:105DD0009377160013535F0093D81200638C07006B
:105DE00037A7FFFF93031700B3C578001398050189
:105DF0009358080133CE6800937E1E00935F6F00B6
:105E000013D31800638C0E00B7A6FFFF9382160011
:105E1000334553001316050113530601B347F3012D
:105E200093F31700135F7F00135E1300638C03006E
:105E300037A7FFFF930517003348BE0093180801EA
:105E400013DE0801937E1E0013551E00638CEE01C5
:105E5000B7AFFFFF93861F00B342D5001395020131
:105E6000135505016780000033C8A5009376F50F30
:105E700013170501937218001353070113D6160068
:105E800013DE1500638C0200B7A5FFFF9383150096
:105E9000B3477E009398070113DE0801B34ECE008E
:105EA00013FF1E0093DF260093531E00630C0F00A8
:105EB00037A8FFFF9302180033C7530013160701DA
:105EC00093530601B3C5F30193F8150013DE3600B2
:105ED00013D81300638C0800B7AEFFFF138F1E00AA
:105EE000B347E801939F070113D80F01B342C801DC
:105EF00013F7120013D64600935E1800630C0700D8
:105F0000B7A3FFFF93851300B3C8BE00139E08011B
:105F1000935E0E0133CFCE00937F1F0013D856003F
:105F200093D31E00638C0F00B7A2FFFF13871200EC
:105F3000B3C7E3001396070193530601B3C50301EA
:105F400093F8150013DE660093D21300638C0800EB
:105F5000B7AEFFFF138F1E00B3CFE20113980F01FE
:105F60009352080133C7C2011376170093D6760007
:105F700013DE1200630C0600B7A3FFFF9385130026
:105F8000B347BE009398070113DE0801937E1E00FD
:105F900093531E00638CDE0037AFFFFF930F1F008B
:105FA00033C8F3019312080193D302011353830002
:105FB00033C663001377F30F9376160093551700DB
:105FC00013DF1300638C0600B7A8FFFF138E1800C1
:105FD000B347CF01939E070113DF0E01B34FBF00FC
:105FE00013F81F009352270093551F00630C0800FD
:105FF000B7A3FFFF1383130033C665009316060192
:1060000093D50601B3C8550013FE1800935E370000
:1060100093D21500630C0E0037AFFFFF930F1F00E4
:10602000B3C7F2011398070193520801B3C3D20119
:1060300013F313009356470093DE1200630C030022
:1060400037A6FFFF93051600B3C8BE00139E0801D4
:10605000935E0E0133CFDE00937F1F00135857006D
:1060600093D51E00638C0F00B7A2FFFF938312002D
:10607000B3C775001393070193550301B3C6050118
:1060800013F616009358670013D81500630C06002A
:1060900037AEFFFF930E1E00334FD801931F0F0141
:1060A00013D80F01B342180193F31200135777006E
:1060B00013561800638C030037A3FFFF93051300EA
:1060C000B347B6009396070113D6060193781600DE
:1060D00013581600638CE80037AEFFFF930E1E00C6
:1060E000334FD801931F0F0113D80F01135505012A
:1060F000B342A8009373F50F1313050113F71200B1
:106100009355030193D61300935E1800630C0700A8
:10611000B7A7FFFF13861700B3C8CE00139E080170
:10612000935E0E0133CFDE00937F1F0013D8230050
:1061300093D61E00638C0F00B7A2FFFF13871200D7
:1061400033C5E6001313050193560301B3C70601D7
:1061500093F8170013D6330013D81600638C080089
:1061600037AEFFFF930E1E00334FD801931F0F0170
:1061700013D80F01B342C80013F7120013D3430022
:10618000135E1800630C0700B7A6FFFF9387160085
:106190003345FE009318050113DE080133466E00F7
:1061A000937E160013DF530013531E00638C0E0002
:1061B000B7AFFFFF13881F00B3420301139702011B
:1061C00013530701B346E30193F8160093D7630016
:1061D000135F1300638C080037AEFFFF13061E0029
:1061E0003345CF00931E050113DF0E01B34FFF00AF
:1061F00013F81F0093D3730093581F00630C08001B
:10620000B7A2FFFF1387120033C3E8009316030100
:1062100093D8060193F7180013DF1800638C7700FA
:1062200037AEFFFF13061E003345CF00931E050156
:1062300013DF0E0193D58500B3CFE50113F8F50FF9
:1062400093F31F009352180093571F00638C0300B1
:1062500037A7FFFF13031700B3C667009398060123
:1062600093D7080133CEF20013761E00935E280008
:1062700093D31700630C060037AFFFFF93051F0091
:1062800033C5B300931F050193D30F01B3C27E0042
:1062900013F712001353380013D61300630C0700D2
:1062A000B7A6FFFF93881600B3471601139E070198
:1062B00013560E01B34E660013FF1E00935548009F
:1062C00013531600630C0F00B7AFFFFF93831F003B
:1062D000334573009312050113D302013347B30012
